:020000022000DC
:106000000000012079630200616302006363020003
:10601000656302006763020069630200000000001C
:106020000000000000000000000000006B630200A0
:106030006D630200000000006F63020071630200E4
:10604000DDCC02007363020005DA02007363020014
:10605000736302007363020025D7020073630200BA
:1060600073630200736302007363020073630200D0
:106070007363020021DE0200736302007363020097
:10608000736302002D8002007363020073630200D9
:106090006D8002007363020009D203007363020083
:1060A0007363020073630200736302007363020090
:1060B0007363020073630200000000000000000030
:1060C0007363020073630200736302007363020070
:1060D0007363020073630200736302000000000038
:1060E00000000000000000000000000000000000B0
:1060F00000000000000000000000000000000000A0
:10610000000000000000000000000000000000008F
:10611000000000000000000000000000000000007F
:10612000000000000000000000000000000000006F
:10613000000000000000000000000000000000005F
:10614000000000000000000000000000000000004F
:10615000000000000000000000000000000000003F
:10616000000000000000000000000000000000002F
:10617000000000000000000000000000000000001F
:10618000000000000000000000000000000000000F
:1061900000000000000000000000000000000000FF
:1061A00000000000000000000000000000000000EF
:1061B00000000000000000000000000000000000DF
:1061C00000000000000000000000000000000000CF
:1061D00000000000000000000000000000000000BF
:1061E00000000000000000000000000000000000AF
:1061F000000000000000000000000000000000009F
:10620000364937480A1A02D0072291438D4635494C
:1062100035480A1A06D00722914381F309880222E1
:1062200082F3148831483249324A00F045F8324846
:106230003249334A00F040F832483349334A00F0DB
:106240003BF833483349344A00F036F83348344990
:10625000344A00F031F834483449354A00F02CF81B
:1062600034483549354A00F027F835483549002289
:1062700000F02DF834483549002200F028F8344861
:106280003449091A082903DB002202600430016046
:10629000314A90471F482049884205D0026804309F
:1062A00003B4904703BCF7E700208646EC46002085
:1062B00000212A4A9047FEE7884207D0521A05D0AB
:1062C000037801300B700131013AF9D170478842EF
:1062D00002D002700130FAE7704700000000012090
:1062E00000E000200000012000000120B87C040034
:1062F000A42B0020AC2C0020D8630200D86302003D
:10630000540D0400B87C0400A42B0020A42B002012
:10631000200F0400200F0400200F0400200F0400B1
:10632000200F0400200F0400200F0400200F0400A1
:10633000B87C0400C07D0400AC2C0020AC2C0020F4
:10634000AC2C0020694400206C4400206C440020E8
:106350006C4400206C640020A1630200DD31030066
:10636000FEE7FEE7FEE7FEE7FEE7FEE7FEE7FEE705
:10637000FEE7FEE7704700BF1048804710484FF027
:106380000701884385460F4880470F48016841F45C
:1063900070010160BFF34F8FBFF36F8FFFF730BF06
:1063A0000A480B490B4A884207D0521A05D0037895
:1063B00001300B700131013AF9D170477563020069
:1063C00000000120ED3B030088ED00E00C0F04000D
:0863D000902B0020A42B0020FB
:1063D80000B583B00190019B1B681F2B04D90549A8
:1063E8004FF4F3700CF094FC4FF0A043184603B040
:1063F8005DF804FB200F040000B585B001900B4642
:106408008DF8033001AB1846FFF7E2FF0390019ABD
:10641800039B02F5E07253F82230019A23F44031CD
:10642800039B02F5E07243F82210019A039B02F5E0
:10643800E07253F822309DF8032012041146019AA5
:106448001943039B02F5E07243F8221000BF05B020
:106458005DF804FB00B583B00190019B032B04D8C1
:10646800019809F071FA034600E00023184603B0CA
:106478005DF804FB00B587B003460A468DF807307F
:1064880013468DF8063000238DF817300023049347
:106498009DF80730184609F09FFA0490049B032BD7
:1064A80061D89DF80630012B04D0022B4FD0002B69
:1064B80030D058E03549049A13465B0013440B4426
:1064C8001B788DF817303149049A13465B00134442
:1064D8000B4401331B78002B0ED02D4B2D4A4FF463
:1064E8000041184601F028FE0390039B002B03D1BE
:1064F800284A9DF8073013702449049A13465B0014
:1065080013440B4402331978234A049B13440A4664
:106518001A7028E01E4B184601F040FE1E4A049BE4
:10652800134419781948049A13465B00134403442A
:1065380002331B78994215D11449049A13465B001B
:1065480013440B4402331B788DF817300AE00F49C7
:10655800049A13465B0013440B4401331B788DF8EF
:10656800173000E000BF9DF81730002B09D00B4B07
:106578001B68002B05D0094B1B689DF81720104697
:10658800984700BF07B05DF804FB00BFFC2C002053
:10659800082D0020282D00202C2D0020F82C00206C
:1065A80000B583B00190019B1B7802211846FFF7C4
:1065B80061FF00BF03B05DF804FB000000B583B0C5
:1065C8000C4B1B78002B0FD00023019308E0019B94
:1065D800022B02D0019809F045F9019B0133019380
:1065E800019B032BF3D901E009F056F900BF03B072
:1065F8005DF804FBB42C00202DE9F04884B0034674
:106608008DF807300023039300230293D14B1B78A6
:10661800002B04D0CF4B00221A70FFF7CFFF9DF854
:106628000730172B00F2358201A252F823F000BF81
:1066380099660200B1660200B1660200396702007D
:10664800C16702002F680200B5680200D568020021
:10665800E568020003690200216902003F6902003F
:1066680069690200776902007769020077690200A8
:1066780077690200776902003D6A02004B6A0200EE
:106688005F6A0200736A02008D6A02008D6A020066
:10669800FFF794FFB04B184601F080FD0390AF4A16
:1066A8009DF807301370F5E1002009F093F80346D0
:1066B800002B0DD0002009F0D5F89DF80730022BEB
:1066C80002D14FF4E16301E04FF47A6302930BE0E7
:1066D800002009F0ADF89DF80730022B01D1C8233E
:1066E80001E04FF4C87302939C4A9DF80730137079
:1066F800994D029B19464FF000024FF000034FF0EE
:106708000004D40344EA5144CB0313F5FA7044F16E
:1067180000014FF47A724FF0000317F0B1F8034606
:106728000C4600221946284601F006FD0390B1E107
:10673800002009F04FF80346002B0DD0002009F087
:1067480091F89DF80730032B02D14FF4487301E00C
:106758004FF47A6302930BE0002009F069F89DF882
:106768000730032B01D1C82301E04FF4C87302930B
:106778007A4A9DF807301370774D029B19464FF0FF
:1067880000024FF000034FF00004D40344EA5144E0
:10679800CB0313F5FA7044F100014FF47A724FF00D
:1067A800000317F06DF803460C46002219462846E8
:1067B80001F0C2FC03906DE1002009F00BF80346DC
:1067C800002B06D0002009F04DF84FF47A630293AD
:1067D80005E0002009F02CF84FF4C87302935F4AD3
:1067E8009DF8073013705C4D029B19464FF000026C
:1067F8004FF000034FF00004D40344EA5144CB03A4
:1068080013F5FA7044F100014FF47A724FF0000367
:1068180017F036F803460C4600221946284601F0C0
:106828008BFC039036E1002008F0D4FF0346002BD0
:106838000CD0002009F016F89DF80730052B01D17F
:10684800C82301E04FF47A6302930BE0002008F0BC
:10685800EFFF9DF80730052B01D1C82301E04FF465
:10686800C87302933D4A9DF8073013703A4D029B56
:1068780019464FF000024FF000034FF00004D40314
:1068880044EA5144CB0313F5FA7044F100014FF484
:106898007A724FF0000316F0F3FF03460C4600220D
:1068A8001946284601F048FC0390F3E0002009F05F
:1068B80017F82A4A9DF807301370274B002240F634
:1068C800CD41184601F038FC0390E3E0002008F0C1
:1068D800AFFF224A9DF807301370DBE01D4B012201
:1068E8001A70012008F0FCFF1B4B002240F6CD4136
:1068F800184601F021FC0390CCE0164B01221A70D7
:10690800012008F0EDFF144B00224FF48041184697
:1069180001F012FC0390BDE00E4B01221A70012019
:1069280008F0DEFF0C4B002240F6CD41184601F07E
:1069380003FC0390AEE0074B01221A70012008F017
:10694800CFFF054B00224FF48041184601F0F4FBBD
:1069580003909FE0AD2C0020B82C0020AC2C002028
:1069680008F0ACFF4E4A9DF80730137092E04D4B8B
:10697800184601F013FC03909DF80730C3F111038A
:106988000293029B002B4ED0039B002B4BD1029B02
:10699800012B41D9434F029B9BB29DB24FF0000699
:1069A800AB46B4461BEB0B034CEB0C049B46A446CE
:1069B8001BEB050B4CEB060C4FF000014FF00002EF
:1069C8004FEACC0242EA5B724FEACB018B4694460F
:1069D8001BEB050B4CEB060C4FF000014FF00002CF
:1069E8004FEA8C4242EA9B324FEA8B418B469446EF
:1069F8005B46644613F5FA7044F100014FF47A726D
:106A08004FF0000316F03CFF03460C4600221946DF
:106A1800384601F091FB0390022008F009FF224B51
:106A280001221A7036E0022008F01CFF1E4B0022DB
:106A38001A702FE0FFF7C2FD194A9DF8073013704E
:106A480028E0FFF7BBFD002008F0F2FE144A9DF88D
:106A5800073013701EE0FFF7B1FD012008F0E8FED3
:106A68000F4A9DF80730137014E0FFF7A7FD0020C8
:106A780008F0DEFE012008F0DBFE094A9DF8073029
:106A8800137007E008F01AFF054A9DF807301370E5
:106A980000E000BF039B184604B0BDE8F08800BFC3
:106AA800AC2C0020D82C0020B42C002000B583B0DA
:106AB8000190074B1B6803F00103002B04D0054B22
:106AC8001B781846FFF798FD00BF03B05DF804FB7C
:106AD800B02C0020AC2C002000B583B0019002201F
:106AE80008F0FEFE00BF03B05DF804FB00B585B0FA
:106AF80003468DF8073000230393084B1B6803F007
:106B08000103002B05D09DF807301846FFF774FDE8
:106B18000390039B184605B05DF804FBB02C0020D9
:106B280000B585B001900091002303932A4A019B88
:106B380013602A4A009B1360019B03F00203002B99
:106B48002AD00023029308E001220121029800F0D4
:106B580055F80390029B01330293029B032B02D842
:106B6800039B002BF0D0039B002B06D140F26662FA
:106B780004211B4800F0B0FB0390039B002B02D1BB
:106B880000F024FC0390039B002B05D1154A00213B
:106B9800154801F0A1FA0390019B03F00103002BB3
:106BA80014D0012008F04EFF039B002B05D10F4A9B
:106BB80000210F4801F090FA0390039B002B05D1A8
:106BC8000C4A01210C4801F087FA0390039B1846F0
:106BD80005B05DF804FB00BFB02C0020F82C0020A5
:106BE8005C0F0400A9650200580F0400B56A020092
:106BF800500F0400E16A0200540F040084B00190B1
:106C08000B468DF8033013468DF8023000230393AA
:106C1800019B032B3CD89DF80230012B0BD19DF82A
:106C28000330012B04D1019BDBB20E33DBB200E051
:106C380000238DF802309DF80330012B04D0022B7D
:106C48000CD0002B15D01FE01449019A13465B00A5
:106C580013440B449DF802201A701BE00F49019A57
:106C680013465B0013440B4401339DF802201A704D
:106C780010E00A49019A13465B0013440B4402339F
:106C88009DF802201A7005E00723039300BF01E076
:106C980007230393039B184604B07047FC2C00207D
:106CA80000B585B001900B468DF80330019B032B8E
:106CB80014D89DF80330002B01D0032300E00023F3
:106CC8008DF80F30019808F0A7FE02469DF80F30A6
:106CD80019461046FFF790FB002300E006231846EC
:106CE80005B05DF804FB00B583B00190012101985F
:106CF800FFF7D6FF0346184603B05DF804FB00B55E
:106D080083B0012200210020FFF778FF0190019B4A
:106D1800002B04D0019B072B01D0019B1CE007220C
:106D280002210120FFF76AFF0190019B002B04D08C
:106D3800019B072B01D0019B0EE0042202210020B9
:106D4800FFF75CFF0190019B002B04D0019B072BF0
:106D580001D0019B00E00023184603B05DF804FB56
:106D680000B583B0012202210020FFF747FF019000
:106D7800019B002B04D0019B072B01D0019B1CE039
:106D8800072202210120FFF739FF0190019B002B08
:106D980004D0019B072B01D0019B0EE00A220021A1
:106DA8000020FFF72BFF0190019B002B04D0019BD3
:106DB800072B01D0019B00E00023184603B05DF8C3
:106DC80004FB00B583B001900120FFF743FB0346A5
:106DD800002B03D0019B02221A700CE00020FFF761
:106DE80039FB0346002B03D0019B0B221A7002E0EB
:106DF800019B00221A7000BF03B05DF804FB00B5C8
:106E080083B00020FFF76FFF0190019B002B04D097
:106E1800019B062B01D0019B0CE00120FFF763FFCB
:106E28000190019B002B04D0019B062B01D0019BF4
:106E380000E00023184603B05DF804FB00B585B0F8
:106E480001900091019B1B88102B02D0112B18D0A8
:106E58002FE01A4B1B68002B0DD1FFF750FF039052
:106E6800039B002B07D0164B1B68002B03D0144B39
:106E78001B6803989847114B1B6801330F4A13602E
:106E880017E00E4B1B68013B0C4A13600B4B1B6849
:106E9800002B0DD1FFF764FF0390039B002B07D055
:106EA800074B1B68002B03D0054B1B6803989847BA
:106EB80000BF00BF05B05DF804FB00BF342D002003
:106EC800302D002000B585B0019000910023039378
:106ED8000A4A019B1360009B002B02D00098FFF721
:106EE80070FF074B1B68002B02D1FFF739FF039097
:106EF800039B184605B05DF804FB00BF302D002049
:106F0800342D002000B583B0002100200BF0E8FDEF
:106F18000190019B184603B05DF804FB00B583B0EF
:106F28000BF058FE0190019B184603B05DF804FB76
:106F380084B00190019B13F1360F0CD0002B03D0C5
:106F480013F1380F03D00AE0002303930BE048F253
:106F58001153039307E048F21453039303E048F2F4
:106F68001653039300BF039B184604B0704700B53F
:106F780085B00390029101920199029805F00EFCE8
:106F88000023184605B05DF804FB000000B589B081
:106F980003900291039B04330793002005F026FB1E
:106FA8000690069B002B01D0069B10E007980AF07C
:106FB8006BFF0023009300230022074907980AF07B
:106FC800A8FF05900598FFF7B3FF0690069B1846A3
:106FD80009B05DF804FB00BF776F020000B585B00B
:106FE8000190019B0433039303980AF0A7FF05F06F
:106FF80043FB0023184605B05DF804FB00B587B0D5
:107008000390029101928DF80330039B043305939A
:10701800019A029905980BF0E3F904900498FFF798
:1070280087FF0346184607B05DF804FB00B587B034
:107038000390029101920093039B04330593009AF5
:10704800019905980BF0DBF804900498FFF770FF9E
:107058000346184607B05DF804FB00002DE9F04F21
:107068008BB0019000238DF827309DE0544B1A68AF
:107078009DF82730DB0013440893089B1B781946BA
:107088004FF001024FF00003A1F1200CC1F12000E4
:1070980003FA01F902FA0CFC49EA0C0922FA00F099
:1070A80049EA000902FA01F8CDE90689454BD3E916
:1070B8000001DDE9062302EA000A03EA010B5AEAA5
:1070C8000B036CD0DDE906236FEA02006FEA0301C7
:1070D8003C4BD3E900AB0AEA00020BEA0103394949
:1070E800C1E90023089B1B78184606F0FDFA034601
:1070F8008DF81730089B1B7819464FF001024FF0A6
:107108000003A1F1200CC1F1200003FA01F502FAF5
:107118000CFC45EA0C0522FA00F0054302FA01F4DA
:10712800294BD3E9002304EA020A05EA030B9DF878
:1071380017204FF0000308990978A1F1200CC1F13C
:10714800200003FA01F702FA0CFC47EA0C0722FABE
:1071580000F0074302FA01F6BB4508BFB2451ED14D
:107168009DF81730089A5278012A0CBF0122002294
:10717800D2B293420CBF01230023DBB2DAB24FF044
:107188000003CDE90223089B5B68002B07D0089B0E
:107198005B68089A12789DF80810104698479DF881
:1071A800273001338DF82730084B1B789DF82720AE
:1071B8009A42FFF45BAF00BF0BB0BDE8F08F00BF91
:1071C800382D0020702D0020682D00203C2D002037
:1071D80070B586B001900A468DF803204FF0010182
:1071E8004FF000020198A0F12006C0F1200502FA34
:1071F80000F401FA06F6344321FA05F52C4301FAA6
:1072080000F3CDE90434304B184600F0C7FF039073
:10721800039B002B54D12D4BD3E90012DDE9043434
:1072280003EA010504EA020655EA060337D1019884
:1072380006F05AFA0346002B0CD0254BD3E900126E
:10724800DDE9043443EA010544EA0206204AC2E9BA
:1072580000560FE0DDE904346FEA03016FEA040227
:107268001B4BD3E9005605EA010306EA0204184A53
:10727800C2E90034154BD3E90012DDE9043443EACE
:10728800010544EA0206114AC2E900560E48114BAC
:107298001B680022194600F04FFF039011E0DDE95A
:1072A80004346FEA03016FEA0402084BD3E900567D
:1072B80005EA010306EA0204044AC2E9003400E0D0
:1072C80000BF06B070BD00BF442D0020702D002007
:1072D800682D0020402D002010B58AB003900B4681
:1072E80001928DF80B30019B042B01D807235AE03B
:1072F80006F0ECF8034683F00103DBB2002B09D05B
:1073080006F092F80990099B0893089B002B01D07E
:10731800089B48E0254A039B1360254A9DF80B30DB
:107328001370244A019B1360234A4FF000034FF067
:107338000004C2E90034214A4FF000034FF0000472
:10734800C2E9003422E09DF80B30DB00039A1344B5
:10735800079305AB00210A461A800A469A70032350
:107368008DF81430079B9B788DF81530079B1B7898
:10737800184605AB124A194606F0B4F80990099B5D
:107388000693069B002B01D0069B0CE09DF80B3062
:107398005A1E8DF80B20002BD5D10A4A00210A4825
:1073A80000F09AFE034618460AB010BD382D00209A
:1073B8003C2D0020402D0020682D0020702D00203D
:1073C800D9710200657002007C0F040000B583B01B
:1073D800114B1B68002B03D11049BA200BF098FC05
:1073E800002301930CE00C4B1A68019BDB0013444B
:1073F8001B780121184606F0EFF8019B0133019331
:10740800074B1B781A46019B9342ECD3002318467E
:1074180003B05DF804FB00BF382D0020800F040086
:107428003C2D002086B003900291019201238DF833
:1074380017309DF817301F4A039B13601D4A029BA3
:1074480053601C4A019B9360039B44F201029342E0
:1074580012D044F20202934221D1019B154AD36013
:10746800144BDB681B881A46124B9A61114BDB6878
:107478005B68104AD36112E0019B0E4A13610D4B01
:107488001B699B680B4A53610A4B1B691B68094AB5
:107498009361084B1B695B68064AD36100BF72B6EB
:1074A80000BF9DF81730DBB2002BFAD162B600BFDF
:1074B80006B07047782D002000B583B00290009187
:1074C800019244F2010071466A4600F003F803B0E5
:1074D80000BD00BF30B58BB007900691059272B61B
:1074E80009F02CFB00BF09F0EBF80346002BFAD19A
:1074F800079B41F2010293421BD041F201029342E1
:1075080002D8012B09D05FE044F2010293422ED049
:1075180044F20202934218D056E0394A394BD31A42
:10752800DB081B0443F001033749184609F03EF80D
:1075380057E0334A334BD31ADB081B0443F00103EB
:107548003249184609F032F84BE0059B09932C4A5A
:107558002C4BD31ADB081B0443F00100099B5B6822
:107568001A46099B1B882A4909F03FF839E0059B10
:107578000893234A234BD31ADB081B0443F0010466
:10758800089B9D68089B9B68184604F06DFE03469F
:107598001846089B5B681946089B1B68069A029266
:1075A8000193009103462A461A49204609F05FF8DC
:1075B800134A144BD31ADB081B0443F00103164982
:1075C800184608F0F3FF0CE00D4A0E4BD31ADB08FF
:1075D8001B0443F00103069A1049184608F0F4FF0B
:1075E80000BF0F4B1B6803F00103002B00D000BE47
:1075F800059A06990798FFF715FF00BF0BB030BD35
:107608003C0E04000C0E0400D80F0400F80F040010
:107618001C100400381004006010040074100400EA
:10762800F0ED00E082B003468DF807309DF8073092
:1076380003F01F0205499DF907305B09012000FA94
:1076480002F241F8232000BF02B0704700E100E0D9
:1076580082B003468DF807309DF8073003F01F020B
:1076680006499DF907305B09012000FA02F2203330
:1076780041F8232000BF02B0704700BF00E100E0DE
:1076880082B003468DF807309DF8073003F01F02DB
:1076980006499DF907305B09012000FA02F24033E0
:1076A80041F8232000BF02B0704700BF00E100E0AE
:1076B80082B003468DF807309DF8073003F01F02AB
:1076C80006499DF907305B09012000FA02F2603390
:1076D80041F8232000BF02B0704700BF00E100E07E
:1076E80082B0034600918DF807309DF90730002BD2
:1076F8000CDA009BDAB20C499DF8073003F00F034F
:10770800043B5201D2B20B441A7609E0009BDAB26C
:1077180006499DF907305201D2B20B4483F8002381
:1077280000BF02B0704700BF00ED00E000E100E0DC
:1077380000B585B00190019B002B0AD0074B43F0A0
:1077480001030393019B9B010293039B02989847B3
:1077580000E000BF05B05DF804FB00BF9010040016
:1077680000B583B00190064A019BC2F8083506218E
:107778001120FFF7B5FF00BF03B05DF804FB00BFA1
:107788000010014008B50D4B4FF48032C3F8442374
:107798000A4B4FF48032C3F804231120FFF788FF07
:1077A8001120FFF73FFF054B01221A602F20FFF73A
:1077B800BFFF034B01221A7000BF08BD0010014033
:1077C800B62E002008B51120FFF742FF0E4B4FF4EC
:1077D8008032C3F848230C4B4FF48032C3F8082397
:1077E800094B01225A602F20FFF7A2FF064B012206
:1077F8009A60064B00221A602F20FFF799FF044B6E
:1078080000221A7000BF08BD00100140A82E0020F9
:10781800B62E0020024BD3F804351846704700BF37
:107828000010014082B001900091019A009BD31A88
:1078380023F07F43184602B07047000082B00190E1
:10784800034A019BC2F8403500BF02B0704700BF31
:107858000010014086B00190284B1B68002B03D113
:10786800264A019B136045E0019B1A68234B1B685D
:107878001B689A4210D8214B1B681968019B1A682B
:107888001E4B1B688A1A1A601C4B1A68019BDA6126
:107898001A4A019B13602DE0019B1B680393174B49
:1078A8001B680593154B1B68049309E0049B1B6830
:1078B800039AD31A0393049B0593049BDB690493EF
:1078C800049B002B04D0049B1B68039A9A42EDD8B2
:1078D800049B002B05D0049B1A68039BD21A049BB7
:1078E8001A60019B039A1A60019B049ADA61059B4E
:1078F800019ADA6100BF06B0704700BFA42E0020CD
:1079080000B587B001902A4B1B680393284B1B686E
:107918000593059B049308E0049A019B9A4208D0BA
:10792800049B0593049BDB690493049B002BF3D110
:1079380000E000BF049B002B01D1002333E0059A2F
:10794800049B9A4214D11A4B1B68DB69184A1360CE
:10795800174B1B68002B0BD1164B01229A60164B54
:1079680000221A60154B01221A702F20FFF7E0FE43
:10797800049B1B680293049BDA69059BDA61059BEB
:10798800DB690493049B002B05D0049B1A68029BB7
:107998001A44049B1A60064B1B68039A9A4214BF48
:1079A80001230023DBB2184607B05DF804FB00BFD3
:1079B800A42E002000100140A82E0020B72E002081
:1079C80008B51120FFF75CFE00BF08BD08B51420FC
:1079D800FFF756FE00BF08BD00B583B00190019BBC
:1079E8005B69019A92691046984700BF03B05DF839
:1079F80004FB000000B585B02B4B1B68002B4ED054
:107A080000230193FFF706FF0246284B1B6819461F
:107A18001046FFF707FF0290234B1B6803931DE0F6
:107A2800039B1B68029A9A421CD3039B1B68029A09
:107A3800D31A0293039B1B68019A13440193039B77
:107A48000093039BDB690393009B1B7C002B05D0F1
:107A5800009B00221A740098FFF7BEFF039B002BBF
:107A6800DED100E000BF124B1A78124B1B789A4205
:107A78000CD1104B1B780133DAB20E4B1A700D4B38
:107A88001B78022B02D10B4B00221A70094B1B7872
:107A98001946094A019B42F82130FFF797FF00BFBA
:107AA80005B05DF804FB00BFA42E0020A82E00201E
:107AB800B42E0020B52E0020AC2E002082B00190FC
:107AC800184B1A78184B1B789A4223D0154B1B7801
:107AD8000133DAB2134B1A70124B1B78022B02D106
:107AE800104B00221A700F4B1B781A460F4B53F895
:107AF8002220019B1A60019B1A680D4B1B681344D6
:107B08000B4A13600A4B1B6823F07F43084A136033
:107B1800012303E0019B00221A600023184602B0EB
:107B2800704700BFB42E0020B52E0020AC2E0020D8
:107B3800A82E002088B00390029101920023079399
:107B480038E0204B1B680693069B1B68039A9A42F1
:107B580006D2069B1A68039BD21A069B1A602DE070
:107B6800069B1B68039AD31A0393069B1B68079A04
:107B780013440793069B00221A60124B1B68059357
:107B8800069BDB690F4A1360069BDB68002B11D04C
:107B9800029A079B134423F07F42069B5A60069B78
:107BA800DA68069B9A60019B1A68069BDA61019B5A
:107BB800059A1A60034B1B68002BC2D100BF08B09E
:107BC800704700BFA42E002000B589B001900023A3
:107BD8008DF81F30664B1B680593AAE0019B002BAC
:107BE80005D0019B0693069BDB69019361E0614B1D
:107BF8001B781A4613465B001344DB005D4A1344A6
:107C0800043304935B4B1B780133DAB2594B1A7077
:107C1800584B1A78574B9B789A4202D1554B002201
:107C28001A70049B5B680693049B1B78022B04D094
:107C3800032B1BD0012B1FD01DE0049B5B6818464B
:107C4800FFF75EFE0346002B02D001238DF81F309C
:107C5800069B00221A746CE0454B1B680393039B38
:107C680000221A74039BDB69414A1360404B1B686E
:107C7800002BF1D15DE05CE000BF069B1B7C002B74
:107C880000D056E0049B9A68069B5A60049BDA6809
:107C9800069B9A60049B1A69069BDA60049B5A69E2
:107CA800069B9A61344B1B78002B02D0069B00225E
:107CB8005A60069B5A68314B1B68D31A23F07F43DE
:107CC8002F4A93420ED8069B5A682C4B1B681946BC
:107CD8001046FFF7A7FD0246069B9B681A44069BC1
:107CE8001A6017E0254B1A68069B5B681946104610
:107CF800FFF798FD0290069B9B68029A9A4206D26B
:107D0800069B9A68029BD21A069B1A6002E0069BA1
:107D180000221A60069B00225A60069B00229A6085
:107D2800069B01221A74069B0022DA610698FFF767
:107D380091FD019B002B7FF451AF0E4B1A780D4B30
:107D48005B789A427FF44AAF9DF81F30002B04D12C
:107D5800074B1B68059A9A4201D0012300E00023D3
:107D680003F00103DBB2184609B05DF804FB00BF5D
:107D7800A42E0020982D0020B72E0020A82E002029
:107D8800FEFF7F0010B588B00190274B1B68002BC1
:107D980044D0254B1B681B680793FFF73BFD0690F3
:107DA800224B1B68059305990698FFF73BFD034690
:107DB800033304931E4B1B7883F00103DBB2002BC3
:107DC80001D0FFF7DFFC049A079B934238BF1346A4
:107DD800059A13440593059B23F07F430593059863
:107DE800FFF72CFDFFF716FD039006990398FFF7A0
:107DF80019FD0346DC1C06990598FFF713FD034699
:107E08009C420DD9FFF706FD03461846FFF716FDFD
:107E18002F20FFF78DFCFFF7D3FD01E0FFF7D2FC21
:107E280000BF08B010BD00BFA42E0020A82E00205F
:107E3800B62E002000B587B00023019300238DF8EB
:107E48001730194B1B680493184B1B6803936B4638
:107E58001846FFF733FE03468DF80B309DF80B30BC
:107E6800002B08D0009B01AA04991846FFF762FE70
:107E780001238DF81730019B1846FFF7A5FE03462E
:107E8800002B02D001238DF817309DF81730002BF6
:107E980002D00398FFF776FF054B00221A7000BF47
:107EA80007B05DF804FB00BFA82E0020A42E002018
:107EB800B72E002082B003468DF80730034A9DF89C
:107EC8000730537000BF02B0704700BF982D0020E4
:107ED80084B00190144B5B7801338DF80F30124B4E
:107EE8009B789DF80F209A4202D100238DF80F301D
:107EF8000D4B1B789DF80F209A4201D100230FE00B
:107F0800019B9DF80F201A70074B5B781A461346A1
:107F18005B001344DB00044A134404330293029BBE
:107F2800184604B0704700BF982D002000B589B0EE
:107F380003900291019200930023079300238DF888
:107F480016300DF11603184600F0D0F90DF117039D
:107F58001846FFF7BDFF0690069B002B02D10423AD
:107F6800079318E0069B01221A70069B039A5A6031
:107F7800FFF750FC0246069B9A60069B029ADA605D
:107F8800069B019A1A61069B009A5A619DF8173060
:107F98001846FFF78FFF9DF81630184600F0BCF919
:107FA800079B002B01D1FFF711FD079B184609B06D
:107FB8005DF804FB00B587B001900B468DF80330DF
:107FC8000023059300238DF80E300DF10E0318469B
:107FD80000F08CF90DF10F031846FFF779FF0490B4
:107FE800049B002B02D1042305930BE0049B9DF80E
:107FF80003201A70049B019A5A609DF80F301846A6
:10800800FFF758FF9DF80E30184600F085F9059BDC
:10801800002B01D1FFF7DAFC059B184607B05DF885
:1080280004FB000008B50E4B0022C3F840210C4B9E
:108038000022C3F844210A4B0022C3F84821084B08
:108048000022C3F84C21064B0022C3F80021044B40
:108058000022C3F80421FFF7CDFC00BF08BD00BF14
:108068000010014008B5FFF7E5FE00BF08BD00009D
:1080780008B5FFF7A7FB134B00221A70114B00221B
:108088005A70104B0B229A700F4B00221A600F4B3C
:1080980000221A700E4B00221A701420FFF708FBFA
:1080A80006211420FFF71CFB1420FFF7BBFA002061
:1080B800FFF756FBFFF7AEFB0246064B1A6000239C
:1080C800184608BD982D0020A42E0020B42E0020AC
:1080D800B52E0020A82E002086B003900B460192F2
:1080E8008DF80B30134B9B78002B01D108231EE031
:1080F800019B002B01D1072319E0039B002B01D121
:10810800072314E0039B1B681B7C002B01D008236A
:108118000DE0039B1B680593059B00221A74059BC1
:108128009DF80B205A74059B019A5A610023184642
:1081380006B07047982D002000B587B003900291D3
:108148000192039B0593144B9B78002B01D10823C4
:108158001EE0039B002B01D1082319E0029B042B8E
:1081680001D8072314E0059B5B69002B01D1082384
:108178000EE0059B5B7C012B01D1029B00E00023F4
:108188000493019B049A02990598FFF7CFFE0346D2
:10819800184607B05DF804FB982D002000B585B09F
:1081A8000190019B03930D4B9B78002B01D1082371
:1081B80010E0019B002B03D0039B5B69002B01D1CE
:1081C800082307E0039B00221A7402210398FFF793
:1081D800F1FE0346184605B05DF804FB982D002013
:1081E80008B5FFF717FB0346184608BD00B583B06E
:1081F8000190009100990198FFF714FB0346184677
:1082080003B05DF804FB82B0EFF310830093009B8A
:10821800019372B6019B184602B0704762B600BF60
:108228007047000000B585B00190FFF7ECFF0390A0
:10823800164B9B68002B1BD1144B01229A60144BE0
:10824800D3F88020134B1340104A1360104B114A87
:10825800C3F880200E4BD3F884300C4A53600C4B83
:108268004FF0FF32C3F88420019B00221A7002E00D
:10827800019B01221A70039B002B01D1FFF7CEFF4F
:108288000023184605B05DF804FB00BFB82E002097
:1082980000E100E0FC06FFBD00B585B003468DF89F
:1082A8000730104B9B68002B16D09DF80730002B29
:1082B80012D1FFF7A8FF03900B4A0A4B1B68136003
:1082C800094A084B5B685360064B00229A60039B7F
:1082D800002B01D1FFF7A2FF0023184605B05DF877
:1082E80004FB00BFB82E002000E100E000B583B019
:1082F800019000F02BF80346012B03D005494320D9
:108308000AF006FD0198FFF78DFF00BF03B05DF886
:1083180004FB00BF9810040000B583B003468DF835
:10832800073000F013F80346012B03D0064951200B
:108338000AF0EEFC9DF807301846FFF7ADFF00BFC6
:1083480003B05DF804FB00BF9810040084B0EFF39D
:1083580005830193019BC3F308030393039B002B3D
:108368000DD1EFF314830093009B0293029B03F05B
:108378000103002B0CBF01230023DBB200E0012323
:10838800184604B0704782B00190019B03F00303C4
:10839800002B0CBF01230023DBB2184602B0704744
:1083A80000B585B00190002303930EE00A4A039BB1
:1083B80052F82330002B05D0074A039B52F823308C
:1083C80001989847039B01330393039B032BEDD933
:1083D80000BF05B05DF804FBD42E002082B00190E8
:1083E8000091019B1B78013B052B61D801A252F833
:1083F80023F000BF158402001D840200438402009C
:108408007584020095840200B1840200009B00225A
:108418001A704EE0009B01221A70019B1A89009B7A
:108428009A81019B9A88009BDA81019BDA68009BFC
:108438009A60009B00221A743BE0009B02221A708B
:10844800019B1A89009B9A81019B9A88009BDA817B
:10845800019BDA68009B9A60019B9B7D062B0CBFF1
:1084680001230023DAB2009B1A7422E0009B032246
:108478001A70019BDA88009B9A81019B1A89009BDC
:10848800DA81019BDA68009B9A6012E0009B042263
:108498001A70019BDA88009B9A81009B0022DA817E
:1084A800009B00229A6004E0009B05221A7000E0FD
:1084B80000BF00BF02B0704784B001900091019BDB
:1084C8000393039A009B9A4206D2039B1B68B3F15D
:1084D800FF3F01D0012300E0002303F00103DBB2DA
:1084E800184604B0704782B00190019B5B88033343
:1084F8009B00019A1344184602B0704700B583B038
:10850800019000910198FFF7EEFF0246009B93420D
:1085180001D202230CE0019B9B884FF6FF72934225
:1085280003D0019B1B88002B01D1012300E000230D
:10853800184603B05DF804FB00B583B00190019BB9
:10854800002B13D00D4BDB681A46019B93420DD3C9
:108558000A4B1B691A46019B934207D80198FFF7FB
:1085680012FF0346002B01D0012300E0002303F093
:108578000103DBB2184603B05DF804FB902B002022
:1085880082B00190019B002B04D0019B1B680B4A11
:10859800934201D003230DE0019B04331B68084A72
:1085A800934204D0074A934203D1012302E00023F7
:1085B80000E00323184602B0704700BFDEC0ADDEFE
:1085C800FE011EF1FF011EF184B001900023039308
:1085D8000CE0039B9B00019A13441B68B3F1FF3F17
:1085E80001D0002307E0039B01330393039BB3F5FA
:1085F800806FEED30123184604B0704782B003465B
:108608000A46ADF806301346ADF80430BDF806202A
:10861800134913469B0013449B000B4408331A88E4
:10862800BDF804301344ADF80430BDF806200C49F9
:1086380013469B0013449B000B440A331A88BDF869
:1086480004301344ADF80430BDF8043040F2FF3272
:10865800934294BF01230023DBB2184602B070474F
:10866800842F002084B0019000910A2303930023F3
:10867800ADF80A3027E0BDF80A20174913469B00D9
:1086880013449B000B4404331B68009A9A4215D983
:10869800BDF80A20104913469B0013449B000B4465
:1086A80004331B6803F58053009A9A4206D20023CC
:1086B8000393019BBDF80A201A8008E0BDF80A3030
:1086C8000133ADF80A30BDF80A30012BD3D9039B2A
:1086D800184604B0704700BF842F002000B589B049
:1086E800039002910192039B03F580530693039B29
:1086F80008330393029B02221A80039B079332E0FC
:1087080006990798FFF7FAFE03468DF817309DF88B
:108718001730002B0AD1079B9A68184B1B689A429E
:1087280013D9079B9B68154A13600EE0019B002B29
:1087380002D0019B01221A709DF81730022B04D138
:10874800029B4FF480621A8014E0029B1A88079BF0
:108758005B8813449BB203339AB2029B1A80079832
:10876800FFF7C1FE079006990798FFF7A5FE034695
:10877800002BC5D109B05DF804FB00BFE42E002032
:1087880082B001900091009B9B7D022B09D9019B2F
:108798001A89009BDB8813449BB203339AB2019B6E
:1087A8001A81019B5A89009BDB88D31A9BB2033B31
:1087B8009AB2019B5A8100BF02B0704700B583B0DE
:1087C800074B1B681946002300930823054A0648EF
:1087D80002F030FC0346184603B05DF804FB00BF06
:1087E800AC2F002044110400902B002000B585B068
:1087F80003900399002300930823044A044802F0D5
:1088080019FC0346184605B05DF804FB4C1104003A
:10881800902B002000B585B003460091ADF80630D6
:1088280000238DF80F30BDF806300333ADF80A3059
:10883800BDF80A3040F2FD32934201D909234AE0DB
:108848000023ADF80C303BE0BDF80C20244913465A
:108858009B0013449B000B441B78002B2BD1BDF8C5
:108868000A20BDF80C3011461846FFF7C7FE03462C
:10887800002B20D001238DF80F30009BBDF80C2071
:108888001A80BDF80C20164913469B0013449B0020
:108898000B440A331988BDF80C20BDF80A300B4484
:1088A80098B20F4913469B0013449B000B440A33AC
:1088B80002461A8008E0BDF80C300133ADF80C30E0
:1088C800BDF80C30012BBFD99DF80F30002B01D01B
:1088D800002300E00723184605B05DF804FB00BF3D
:1088E800842F002082B003460A46ADF806301346AE
:1088F800ADF80430BDF804200D4913469B0013441D
:108908009B000B440A331A88BDF80630D31A9BB271
:10891800BDF80420033B98B2054913469B00134455
:108928009B000B440A3302461A8000BF02B070470E
:10893800842F002008B50121024801F0A6FD034656
:10894800184608BDE42E002000B585B00346009106
:10895800ADF80630BDF80620234913469B001344A2
:108968009B000B4404331B6803F580530293009B60
:108978001B680393039B002B04D00398FFF7B3FDF8
:10898800039024E0BDF80620174913469B001344C2
:108998009B000B4404331B680833039317E00299C8
:1089A8000398FFF7ABFD0346012B09D0022B0CD02F
:1089B800002B00D00BE0009B039A1A6001230EE005
:1089C8000398FFF790FD039001E0002307E0029968
:1089D8000398FFF771FD0346002BE0D100231846EA
:1089E80005B05DF804FB00BF842F002000B585B0FA
:1089F80001900091019B5B681846FFF79DFD0346B7
:108A0800002B19D0019B1A89244B1B899A4213D138
:108A1800019B1A68019B5B689B689A420CD1019B79
:108A28005B6819460098FFF71DFE0346002B0CBF34
:108A380001230023DBB22CE0009B00221A8023E0F4
:108A48000023029310E0029B0393039B9A68019B07
:108A58001B689A4208D1029A019B5A600F4B1A89E7
:108A6800019B1A81012314E0009B1B8802AA11466E
:108A78001846FFF769FF0346002BE4D1009B1B88CB
:108A880001339AB2009B1A80009B1B88012BD7D90F
:108A98000023184605B05DF804FB00BFB42F002082
:108AA80000B587B00390029101920093304B1B7878
:108AB800DBB283F00103DBB2002B01D0022353E0C9
:108AC800019B002B02D0009B002B48D105234BE0D3
:108AD800009B9B881946274A0B469B000B449B002A
:108AE80013441B78002B33D124E0009B1B680593AB
:108AF800039B002B06D0059B9A88039B1B889A42F0
:108B080000D017E0029B002B06D0059B1A88029B19
:108B18001B889A4200D00DE0059B9A68019B1A6059
:108B2800009B1A68019B5A60134B1A89019B1A8192
:108B3800002319E0009B9B88009A11461846FFF70E
:108B480003FF0346002BD0D1009B00221A6000E0EF
:108B580000BF009B9B8801339AB2009B9A80009BC0
:108B68009B88012BB4D90A23184607B05DF804FB8B
:108B7800C42E0020842F0020B42F002000B585B01B
:108B88000190084B0199184601F0DDFA03901C2268
:108B98000021039814F0FDFF039B184605B05DF80B
:108BA80004FB00BF742F002000B583B00190044B74
:108BB8000199184601F0E0FA00BF03B05DF804FB24
:108BC800742F002000B583B00190054B0199184619
:108BD80001F0E6FA0346184603B05DF804FB00BF4F
:108BE800742F002000B583B00190044B01991846FA
:108BF80001F0EFFA00BF03B05DF804FB742F00200A
:108C080008B50A4B1B68002B04D1094940F27A20A9
:108C18000AF07EF80121054801F04FFC0346002BBD
:108C280014BF01230023DBB2184608BDCC2E002058
:108C3800F410040000B587B0002305930023ADF8B5
:108C480012300323ADF8103000238DF80F300023C5
:108C5800ADF80C30F0E0BDF80C301B031A467F4B22
:108C6800DB68134402930298FFF78AFC03468DF8E9
:108C780007309DF80730012B00F09C80032B02D0B1
:108C8800002B62D0D3E00298FFF79EFC0346002B2E
:108C98003BD0734B1B68002B29D0BDF812207149BB
:108CA80013469B0013449B000B4402221A70BDF824
:108CB80012206C4913469B0013449B000B44043359
:108CC800029A1A60BDF81220664913469B001344A5
:108CD8009B000B44083302221A80634ABDF8123005
:108CE8005380BDF812300133ADF8123008E05C4A09
:108CF800029B13605A4B02229A8001238DF80F3091
:108D0800059B43F00103059391E0BDF81030013B4A
:108D1800ADF81030BDF81220524913469B00134499
:108D28009B000B440433029A1A60BDF812204D4987
:108D380013469B0013449B000B4403221A70BDF892
:108D480012300133ADF8123071E0BDF812204549F8
:108D580013469B0013449B000B4400221A70BDF875
:108D68001220404913469B0013449B000B440433D4
:108D7800029A1A60BDF8122013469B0013449B0008
:108D88000833384A9918BDF8122013469B0013443B
:108D98009B001033334A13441A460298FFF79EFC8F
:108DA800059B43F002030593BDF812300133ADF87B
:108DB80012303CE09DF80F30002B25D0BDF8122072
:108DC800284913469B0013449B000B4402221A7047
:108DD800BDF81220224B1968224813469B00134401
:108DE8009B00034404331960BDF812201D49134643
:108DF8009B0013449B000B44083302221A80BDF8E1
:108E080012300133ADF81230154A029B136000226C
:108E180016490298FFF762FC114B9B88022B01D17F
:108E2800042300E00823059A1343059300BFBDF807
:108E38000C300133ADF80C30BDF80C30022B7FF646
:108E48000AAFBDF81030012B01D800230593059B0C
:108E5800DBB2184607B05DF804FB00BF902B00207A
:108E6800AC2F0020842F0020B42F0020B02F00202A
:108E780000B587B003900291039B02229A7502996C
:108E8800039B1A1D002300930423074802F0D2F81D
:108E98000590059B002B01D1002300E00E23184606
:108EA80007B05DF804FB00BF902B002000B587B029
:108EB80003900291039B1B69002B01D0032200E061
:108EC8000122039B9A75029B08331946039B03F101
:108ED8000C02002300930423064802F0ABF8059027
:108EE800059B002B01D1002300E00E23184607B094
:108EF8005DF804FB902B002000B587B00390029129
:108F0800039B1B78032B01D1052200E00622039B5B
:108F18009A75029B04331946039B03F10802002348
:108F280000930423064802F085F80590059B002B62
:108F380001D1002300E00E23184607B05DF804FBBA
:108F4800902B002000B587B003900B46ADF80A308F
:108F580003990023009304230C4A0D4802F06AF891
:108F68000590059B002B01D00E230BE0BDF80A20CD
:108F7800084913469B0013449B000B4410330122FD
:108F88001A700023184607B05DF804FB541104005A
:108F9800902B0020842F002000B589B0019002ABEF
:108FA80000221A605A609A60019BDB6802930DF1F7
:108FB800160202AB11461846FFF718FD0346002BB0
:108FC80012D0039B0693069B9A88019BDA80069B26
:108FD8001A88019B1A81039BBDF816201146184672
:108FE800FFF7B0FF079001E00A230793079B184695
:108FF80009B05DF804FB000000B587B00190019B43
:10900800981D02AA0D4B0021FFF74AFD0590059B0C
:10901800002B08D1039A094B9B8819461046FFF785
:1090280091FF059004E008220021044814F0B1FDE6
:10903800059B184607B05DF804FB00BFC42F00204D
:1090480000B587B003900291039B01229A75029B99
:109058000C331846039B1A69039BDB88990000238D
:1090680000930B460146074801F0E4FF0590059B75
:10907800002B01D1002300E00E23184607B05DF84D
:1090880004FB00BF902B002082B0184B1B890133D2
:109098009AB2164B1A81154B00225A80134B0022A4
:1090A8001A730023ADF8063018E0BDF80620104901
:1090B80013469B0013449B000B441A78BDF80630F6
:1090C800002A0CBF01220022D1B2084A13440A46E2
:1090D8009A72BDF806300133ADF80630BDF8063097
:1090E800012BE2D900BF02B0704700BFB42F0020A7
:1090F800842F002084B0019000238DF80F300023C6
:10910800ADF80C3031E0BDF80C301C4A13449B7AA2
:10911800002B25D0BDF80C30184A134400229A724F
:10912800BDF80C20164913469B0013449B000B44C2
:109138000C331B68002B13D1BDF80C2010491346C3
:109148009B0013449B000B4410331B78002B07D063
:10915800019BBDF80C201A8001238DF80F3008E020
:10916800BDF80C300133ADF80C30BDF80C30012BD4
:10917800C9D99DF80F30184604B07047B42F0020A5
:10918800842F002008B5084B05221A70074B0222CD
:109198009A80064B1B68194600230122044802F0F6
:1091A8002BF80346184608BDB42F0020AC2F00202A
:1091B800902B002000B583B0164B5B88ADF80230C9
:1091C800BDF80220144913469B0013449B000B442E
:1091D8000C331B68002B14D10E4B04221A70BDF8F7
:1091E80002200D4913469B0013449B000B44043393
:1091F8001B68194600230122084801F0FDFF019071
:1092080002E0FFF7BFFF0190019B184603B05DF82D
:1092180004FB00BFB42F0020842F0020902B0020D7
:1092280000B587B0114B5B680593114B1A68104B5A
:109238009B889B0013440493059B5B880333ADF81C
:109248000E300A4B03221A700499084B5A68BDF86D
:109258000E309800002300930346064801F0EAFE0A
:109268000346184607B05DF804FB00BFB42F002082
:10927800AC2F0020902B002000B583B00A4B5B88F0
:109288000A491846FFF760FB0346002B03D0FFF797
:10929800C7FF019002E0FFF78DFF0190019B184680
:1092A80003B05DF804FB00BFB42F0020B82F0020E6
:1092B80008B50A4B06221A70084B5B881946084AFB
:1092C8000B469B000B449B00134404331B68184651
:1092D800FFF78CFA0346184608BD00BFB42F0020DC
:1092E800842F002008B5054B07221A70034B002273
:1092F8005A60FFF763FA0346184608BDB42F0020EA
:1093080008B50D48FFF7F6FE034683F00103DBB20C
:10931800002B0BD0094B00221A70084B00225A80F0
:10932800064B00225A6041F61D5302E0FFF7A4FFE6
:109338000346184608BD00BFB62F0020B42F0020F2
:1093480082B0094B5B680193019B5B880333ADF8DE
:109358000230064B9A88BDF8023013449AB2034B88
:109368009A8000BF02B07047B42F0020AC2F0020B5
:1093780082B0184B1B680193174B5B881946174A34
:109388000B469B000B449B00134404331B68114A93
:109398001360114B5B881946104A0B469B000B441F
:1093A8009B0013440433019A1A600B4B5B881946DF
:1093B800084B9888094A0B469B000B449B001344B2
:1093C800083302461A80034B02229A8000BF02B07B
:1093D800704700BFAC2F0020B42F0020842F00203E
:1093E80008B51A4B1B78072B2CD801A252F823F08A
:1093F800199402004D9402004D9402002594020035
:10940800319402003D9402003D940200459402000C
:10941800FFF73AFE0D4B01221A7014E0FFF790FF98
:109428000A4B02221A700EE0FFF7A2FF074B062232
:109438001A7008E0054B07221A7004E0034B01225A
:109448001A7000E000BF00BF08BD00BFB42F0020A5
:1094580000B587B0019000910F230593019B002B65
:1094680004D0624B00225A600123BBE0009B1B79A9
:10947800032B00F2AB8001A252F823F0959402006E
:10948800A39402003195020051950200009B01222D
:109498001A71FFF793F905909BE000238DF81330BC
:1094A8000023ADF810302BE0BDF8102050491346CA
:1094B8009B0013449B000B441B78022B1BD1BDF867
:1094C80010204B4913469B0013449B000B44002279
:1094D8001A7001238DF81330BDF810204449134643
:1094E8009B0013449B000B4404331B681846FFF78A
:1094F8007DF9059008E0BDF810300133ADF8103063
:10950800BDF81030012BCFD99DF8133083F001033B
:10951800DBB2002B5CD0354B01221A70334B002292
:109528005A6041F61D535DE0009B00221A71314BD1
:1095380002229A802F4B1B681946002301222E48CD
:1095480001F05AFE059044E0009B00221A71294B55
:109558001B681846FFF74AF90590284B5B88ADF859
:109568000E30244B1B680293BDF80E202049134689
:109578009B0013449B000B4404331B681D4A136073
:10958800BDF80E201A4913469B0013449B000B4458
:109598000433029A1A60BDF80E20164B98881449B5
:1095A80013469B0013449B000B44083302461A8061
:1095B800104B02229A80BDF80E200D4913469B00DD
:1095C80013449B000B4400221A7002E000BF00E025
:1095D80000BF059B002B04D0044B00225A600E23C9
:1095E80000E00023184607B05DF804FBC42E0020F5
:1095F800842F0020AC2F0020902B0020B42F0020B7
:1096080000B587B001900091009B9B8A1A461346CB
:109618009B0013449B003A4A13440493019B002B7C
:1096280005D000990498FFF7ABF8012363E0049B89
:109638005A68049B1B899B0013440393009B9B7DE2
:10964800062B4DD801A252F823F000BF97960200CE
:10965800BB960200A3960200AF9602007196020024
:10966800C7960200E1960200264B00225A60009B32
:109678009B69244A136024492248FFF7B7F9034637
:1096880083F00103DBB2002B01D00A2333E00399F6
:109698000098FFF7EDFB059025E003990098FFF788
:1096A80005FC05901FE003990098FFF7C9FC059099
:1096B80019E003990098FFF71FFC059013E0009B41
:1096C80006229A750F4B5A680F4B1B88194610468D
:1096D800FFF738FC059006E041F61D53059302E0BC
:1096E8000F23059300BF059B002B03D00099049816
:1096F800FFF746F8059B184607B05DF804FB00BF66
:10970800842F0020CC2F0020D82F002000B585B052
:1097180001900091019B002B01D0012323E0009BC5
:109728001B79012B0BD0022B14D0002B16D1009BD8
:1097380002221A710098FFF72FFC039012E000989C
:10974800FFF75AFC0390039B0A2B0AD141F61D53DD
:10975800039306E041F61D53039303E00F2303939D
:1097680000E000BF039B184605B05DF804FB00004D
:1097780000B585B00190019B002B01D001233BE08F
:109788001F4B1B7B002B03D01D4B00221A7301E0DB
:10979800FFF726FE1A4B1B78013B062B28D801A29F
:1097A80052F823F0C9970200D1970200D997020016
:1097B800E1970200F9970200E9970200F197020089
:1097C800FFF79EFD039016E0FFF756FD039012E0A9
:1097D800FFF726FD03900EE0FFF7ECFC03900AE08C
:1097E800FFF766FD039006E0FFF77CFD039002E0BB
:1097F8000F23039300BF039B184605B05DF804FBD5
:10980800B42F002000B589B001903F4B1B68002B96
:1098180005D13E48FFF7D6F902463B4B1A603A4B52
:109828001B68002B04D13A4940F2825009F070FAC3
:10983800354B1B681B78013B052B2CD801A252F82D
:1098480023F000BF65980200759802007598020021
:109858008598020085980200959802002A4B1B689B
:1098680019460198FFF7F4FD019017E0264B1B6895
:1098780019460198FFF7C4FE01900FE0224B1B68C0
:1098880019460198FFF742FF019007E00198FFF79A
:109898006FFF019002E00F23019300BF019B002B93
:1098A8002BD003AB00221A605A609A60DA601A6102
:1098B800019B41F61D52934201D0019B00E0002319
:1098C8000493114B1B6803AA11461846FEF786FD40
:1098D80003AB1846FEF764FD0B4B00221A60002309
:1098E80001930A48FFF77EF9FFF78AF9034683F0E8
:1098F8000103DBB2002B02D187E700BF00E000BF05
:1099080000BF09B05DF804FBDC2F0020E02F002029
:10991800F410040008B50121054800F09EFD034637
:10992800002B02D10020FFF76DFF00BF08BD00BF6C
:10993800CC2E002000B583B00190019B5B681846CF
:10994800FFF760FF00BF03B05DF804FB00B58BB004
:109958000390029101928DF803300023ADF8243072
:109968000023ADF82630514B1B78DBB283F001039E
:10997800DBB2002B01D0022393E0029B002B01D124
:1099880005238EE0029B1B884FF6FF72934203D09B
:10999800029B5B88002B01D1042382E0029B5B6859
:1099A8001846FEF7F0FC034683F00103DBB2002BF8
:1099B80001D0032375E0019B002B11D1029B9B680A
:1099C800ADF826300DF11A02BDF8263011461846BA
:1099D800FEF720FF0890089B002B09D0089B60E049
:1099E800019B1B88ADF81A30019B5B88ADF82630C7
:1099F80005AB1846FFF7C2F80790079B002B09D163
:109A0800BDF81A20BDF8263011461846FEF76AFF41
:109A1800082346E0079B9DF803201A70079B002245
:109A28009A75BDF81A20079B9A82029B5A68079B71
:109A38001A61FEF77FFF0246079BDA60029B1A88CD
:109A4800079B1A81029B5A88079B9A80079BBDF83F
:109A58002620DA809DF80330032B06D1079B0422C9
:109A68009A75039B1A68079B9A61079BBDF8242087
:109A78005A8105AB1846FFF797F8039B002B0DD0CA
:109A8800039B00225A60079BDA68039B1A60039BBA
:109A980000229A72064B1A89039B1A81FFF73AFF34
:109AA800002318460BB05DF804FB00BFC42E00204D
:109AB800B42F002000B585B001900C4B1B68042B17
:109AC80002D10C2303930BE0084B1B680849019A49
:109AD80041F823200121054800F0D7FC0023039317
:109AE800039B184605B05DF804FB00BFD02E00208C
:109AF800D42E002084B040F6F8731B68B3F1FF3F02
:109B080002D10F4B1B6802E040F6F8731B68039301
:109B18004FF080531B6902934FF080535B690193A8
:109B2800039BB3F1FF3F04D1019B029A02FB03F3AD
:109B380000E0039B0093009B184604B0704700BFE9
:109B48001410001000B583B04FF440530193FFF791
:109B5800D1FF0246054B1A61044B1A69019BD31ABF
:109B6800024AD36000BF03B05DF804FB902B0020CD
:109B780008B5FFF7E7FF00220349044801F012FA8D
:109B88000346184608BD00BF6C140400902B002043
:109B980008B504481C238C22034900F08DFA00BF45
:109BA80008BD00BF742F0020E82E002000B58BB040
:109BB80002AB00221A605A609A60DA601A61404B60
:109BC8001B78DBB2002B05D002AB1846FEF7E8FB8A
:109BD800002371E03B4800F088FC0346002B01D0CD
:109BE800002369E0FFF7C4FF0990099B002B01D00F
:109BF800099B61E0FFF7CCFFFFF71CF803468DF8DF
:109C080023309DF82330022B0DD0062B0DD0002BCE
:109C180009D000BF01AB1846FEF7B0FF0790079BBD
:109C2800002B10D10DE00B2346E0254B01221A70C2
:109C3800234B00225A6002AB1846FEF7B1FB002303
:109C48003AE0082338E0079B01221A709DF8233078
:109C5800013B0A2B28D801A252F823F0919C02005C
:109C6800B19C0200919C0200B19C0200A99C0200D8
:109C7800B19C0200A99C0200B19C0200999C0200C0
:109C8800A19C0200999C0200079B00221A710CE01B
:109C9800079B03221A7108E0079B02221A7104E04D
:109CA800079B01221A7100E000BF01AB1846FEF7BE
:109CB8007BFFFFF72FFE002318460BB05DF804FB6F
:109CC800C42E0020C82E002000B585B00190009158
:109CD800019B002B02D0009B002B01D1052329E01A
:109CE8000DF10A0319460198FEF780FE0346002B82
:109CF8001FD0019B5B680393BDF80A301A461346D0
:109D08009B0013449B0008330C4A1344043301217D
:109D1800184600F0BAFB009B039A1A60019B5B6827
:109D280003F10C02009B5A60019B01229A720023E6
:109D380000E00A23184605B05DF804FB842F0020D4
:109D480000B585B00190019B002B01D1052339E0B6
:109D58000DF10A0319460198FEF748FE0346002B49
:109D68002DD0BDF80A301946184A0B469B000B4403
:109D78009B0013440C331B68002B1DD0019B9B7A5E
:109D8800002B19D0BDF80A301A46104913469B001B
:109D980013449B000B440C331B68591E0B48134695
:109DA8009B0013449B0003440C331960019B002261
:109DB8009A720023039304E00623039301E00A2325
:109DC8000393039B184605B05DF804FB842F00201D
:109DD80000B583B0019000910223002200990198F8
:109DE800FFF7B4FD0346184603B05DF804FB00B561
:109DF80083B001900091019B002B01D1052306E05F
:109E08000323002200990198FFF7A0FD0346184696
:109E180003B05DF804FB000000B585B00346ADF85B
:109E28000630184B1B78DBB283F00103DBB2002B42
:109E380001D0022322E0BDF806304FF6FF729342AC
:109E480001D104231AE002AB1846FEF797FE0390EF
:109E5800039B002B01D1082310E0039B05221A70F5
:109E6800039B01221A71039BBDF80620DA8002AB1E
:109E78001846FEF799FEFFF74DFD0023184605B07A
:109E88005DF804FBC42E002000B583B0144B1B788A
:109E9800DBB283F00103DBB2002B01D002231AE00E
:109EA8006B461846FEF76AFE0190019B002B01D114
:109EB800082310E0019B06221A706B461846FEF72D
:109EC80073FE084B1B78002B02D0064B01221A7335
:109ED800FFF720FD0023184603B05DF804FB00BF20
:109EE800C42E0020B42F002000B585B00292019343
:109EF8000346ADF80E300B46ADF80C3003A90DF152
:109F08000E00019B029AFEF7CBFD0346184605B0EA
:109F18005DF804FB00B585B0034602910192ADF8E7
:109F28000E300DF10E01019B029A0020FEF7B8FDDC
:109F38000346184605B05DF804FB00B585B0034636
:109F480002910192ADF80E300DF10E00019B029ABC
:109F58000021FEF7A5FD0346184605B05DF804FB91
:109F680082B001900091019B002B02D0009B002B36
:109F780001D1052304E0019B1A68009B1A600023A5
:109F8800184602B0704786B001900091019B53E8D3
:109F9800011F8AB2D88902449889824228BF121ABE
:109FA8001889824202BFBFF32F8F002307E0C2EA5D
:109FB800010243E801200028E9D14FF001038DF8A0
:109FC8000F30059002910492029A009B1A609DF846
:109FD8000F30DBB2184606B0704784B00190019983
:109FE80051E8013FC3EA034341E80132002AF7D1AF
:109FF8000392029300BF04B0704786B001900091AD
:10A00800019B53E8021F1FFAA1F2D888824202BFBF
:10A01800BFF32F8F00230DE0D8890244988982422C
:10A0280028BF121AC1EA024243E802200028E8D1F8
:10A038004FF001038DF80F30059002910492029AB7
:10A04800009B1A609DF80F30DBB2184606B07047C7
:10A0580084B00190019951E8023FC3EA234341E8E3
:10A068000232002AF7D10392029300BF04B070476E
:10A0780086B00190019B53E8021FDA88B1EB314F9B
:10A088004FF0000017BF89B242EA024241EA024299
:10A0980004E05968B1EB314F08BF012043E80221C1
:10A0A8000029E8D18DF80F00059104929DF80F3032
:10A0B800DBB2184606B0704784B00390029111468F
:10A0C8001A460B46ADF806301346ADF80430029B2D
:10A0D800002B01D10E231FE0BDF80630BDF8042087
:10A0E800B3FBF2F102FB01F29B1A9BB2002B01D0E9
:10A0F800092311E0039B029A1A60039B00225A600D
:10A10800039B00229A60039BBDF806209A81039B5B
:10A11800BDF80420DA810023184604B0704700B562
:10A1280085B001900198FFF7A3FF03468DF80F3023
:10A138009DF80F30002B01D0002300E011231846B2
:10A1480005B05DF804FB00B585B001900091009B57
:10A1580019460198FFF717FF0346002B07D0019B0C
:10A168001B68009A128813440393039B00E00023A2
:10A17800184605B05DF804FB00B583B00190009166
:10A18800009B1A88009B5B889A4204D10198FFF7CC
:10A1980024FF012300E00023184603B05DF804FB08
:10A1A80000B585B001900091009B19460198FFF712
:10A1B80024FF0346002B07D0019B1B68009A528896
:10A1C80013440393039B00E00023184605B05DF891
:10A1D80004FB00B583B001900091009B1A88009B96
:10A1E8005B889A4204D10198FFF732FF012300E00F
:10A1F8000023184603B05DF804FB00B585B0019054
:10A208000091009B5B099B00019AD018009B03F00A
:10A218001F03012202FA03F3194600F0D6F803904F
:10A2280000BF05B05DF804FB00B583B00190009154
:10A23800009B5B099B00019AD018009B03F01F0349
:10A24800012202FA03F3194600F0A7F80246009B20
:10A2580003F01F0322FA03F303F00103002B14BFDA
:10A2680001230023DBB2184603B05DF804FB00B5F8
:10A2780085B001900091009B5B099B00019AD01862
:10A28800009B03F01F03012202FA03F3DB43194684
:10A2980000F0CBF8039000BF05B05DF804FB82B076
:10A2A80001900091009B5B099B00019A13441A6876
:10A2B800009B03F01F0322FA03F303F00103002BB2
:10A2C80014BF01230023DBB2184602B0704700B563
:10A2D8008BB001900091002309933BE0099B9B0000
:10A2E800019A13441B68DB430693069B93FAA3F376
:10A2F8000593059BB3FA83F3089323E0099B5B015D
:10A30800089A13440793079A009B9A421ED207990A
:10A318000198FFF789FF034683F00103DBB2002BA6
:10A3280001D0079B1EE0099B9B00019A13441B6800
:10A33800DB430493049B93FAA3F30393039BB3FABD
:10A3480083F30893089B1F2BD8D900E000BF099B13
:10A3580001330993009B013B5B090133099A9A4237
:10A36800BCD3009B18460BB05DF804FB10B487B053
:10A3780001900091019B009A53E8004F104643E872
:10A38800000191F0000FF7D1059404900391059B0B
:10A39800184607B05DF8044B704710B487B00190B9
:10A3A8000091019B009A53E8004F44EA020043E8F9
:10A3B800000191F0000FF6D1059404900391059BDC
:10A3C800184607B05DF8044B704710B487B0019089
:10A3D8000091019B009A53E8004F44EA020043E8C9
:10A3E800000191F0000FF6D1059404900391049BAD
:10A3F800184607B05DF8044B704710B487B0019059
:10A408000091019B009A53E8004F04EA020043E8D8
:10A41800000191F0000FF6D1059404900391059B7B
:10A42800184607B05DF8044B704710B487B0019028
:10A438000091019B009A53E8004F04EA020043E8A8
:10A44800000191F0000FF6D1059404900391049B4C
:10A45800184607B05DF8044B704710B487B00190F8
:10A468000091019B009A53E8004F04EB020043E877
:10A47800000191F0000FF6D1059404900391059B1B
:10A48800184607B05DF8044B704710B487B00190C8
:10A498000091019B009A53E8004F04EB020043E847
:10A4A800000191F0000FF6D1059404900391049BEC
:10A4B800184607B05DF8044B704710B487B0019098
:10A4C8000091019B009A53E8004FA4EB020043E877
:10A4D800000191F0000FF6D1059404900391049BBC
:10A4E800184607B05DF8044B704700B583B001907B
:10A4F80001210198FFF751FF0346184603B05DF8A4
:10A5080004FB00B583B0019001210198FFF75DFFBE
:10A518000346184603B05DF804FB00B583B001900C
:10A5280000210198FFF769FF0346184603B05DF85C
:10A5380004FB000000B583B001900B468DF8033092
:10A54800019B002B03D10849E82008F0E1FB019B9F
:10A55800DA689DF803300199098A01FB03F3134473
:10A56800184603B05DF804FB6411040000B583B01D
:10A5780001900091019B002B03D10849F52008F0B8
:10A58800C7FB009B019AD2689B1A019A128AB3FBF7
:10A59800F2F3DBB2184603B05DF804FB6411040063
:10A5A80000B585B00190019B002B01D10E234DE031
:10A5B800019B1B68002B03D12649FF2008F0A8FB4C
:10A5C800019B5B68002B04D122494FF4807008F08E
:10A5D8009FFB019B9B68002B04D11E4940F2011090
:10A5E80008F096FB019BDB68002B04D119494FF456
:10A5F800817008F08DFB019B1B8A002B04D1154943
:10A6080040F2031008F084FB019B9B681A46019BEB
:10A618005B68D31A8DF80F30019B1B68019A52684A
:10A628001A6007E0019B1A681368591C11609DF8AD
:10A638000F201A709DF80F305A1E8DF80F20002B2E
:10A64800F0D1019B1B6800221A710023184605B03F
:10A658005DF804FB6411040000B585B00190019B0E
:10A66800002B04D120494FF4927008F051FB0023CD
:10A67800039300238DF80A300DF10A031846FDF7FD
:10A6880035FE019B1B681A68019B5B689A4220D9BA
:10A69800019B1B681A68013A1A601B681B781946E7
:10A6A8000198FFF747FF0390019B9B681A46019B9F
:10A6B8001B681B68D31A8DF80B30019B1B681B792C
:10A6C8009DF80B209A4204D9019B1B689DF80B202A
:10A6D8001A719DF80A301846FDF71EFE039B1846AE
:10A6E80005B05DF804FB00BF6411040010B584B028
:10A6F80001900091019B002B04D1154940F24710AD
:10A7080008F006FB009B002B04D111494FF4A470FC
:10A7180008F0FEFA009B039300238DF80B300DF12F
:10A728000B031846FDF7E2FD019B1B681C68621CC1
:10A738001A6003990198FFF719FF034623709DF8E3
:10A748000B301846FDF7E8FD00BF04B010BD00BF90
:10A758006411040000B583B00190019B002B03D164
:10A768000C49312008F0D4FA019B9B68002B0CD0CF
:10A77800019B5B69019A1069019A1168019A9268B4
:10A788009847019B00229A6000E000BF03B05DF883
:10A7980004FB00BFBC1104000EB400B584B00190E6
:10A7A800019B002B03D11849422008F0B1FA019B04
:10A7B8005B69002B03D11449432008F0A9FA019BD7
:10A7C8001B68002B03D11049442008F0A1FA019B13
:10A7D8005B68002B03D10C49452008F099FA059BCA
:10A7E800002B0AD00023039306AB039303AB1A464E
:10A7F8000599019800F0B8F900E000BF04B05DF8D1
:10A8080004EB03B0704700BFBC11040000B583B06F
:10A8180001900B468DF803309DF803300A2B03D1C5
:10A828000D210198FFF7F2FF019B1A68019B9B68B5
:10A83800581C0199886013449DF803201A70019BE5
:10A848009A68019B5B689A4202D30198FFF782FFDE
:10A8580000BF03B05DF804FB00B587B00390029118
:10A868000192009300230593009B03F00103002B42
:10A8780024D00BE0029B01330293059B013305931F
:10A888009DF8133019460398FFF7C0FF029B1B7809
:10A898008DF813309DF81330002BEBD106E0019BA7
:10A8A800013B019320210398FFF7B0FF019A059B14
:10A8B8009A422ED9019B002BF1D12AE0029B002B52
:10A8C8000BD0029813F0BAF9059006E0019B013B02
:10A8D800019320210398FFF799FF019A059B9A425B
:10A8E8000FD9019B002BF1D10BE0029B013302939E
:10A8F800059B013305939DF8133019460398FFF71C
:10A9080085FF029B1B788DF813309DF81330002BC0
:10A91800EBD100BF07B05DF804FB000000B589B0BB
:10A928000390029101920093029B079301230693DF
:10A9380007E0079A019BB2FBF3F30793069B0133E9
:10A948000693079A019B9A42F3D2009A069B9A4271
:10A9580001D9009B06930B9B03F00103002B22D126
:10A968000A9B002B1FD00B9B03F00203002B06D081
:10A97800009B002B03D130238DF8173002E02023F1
:10A988008DF8173008E00A9B013B0A939DF81730B1
:10A9980019460398FFF73AFF0A9B002B03D0069A43
:10A9A8000A9B9A42EFD301230793009B012B03D9FB
:10A9B800009B013B009309E0029A079BB2FBF3F36B
:10A9C8000493049A019B9A4200D205E0079B019ADE
:10A9D80002FB03F30793E8E7029A079BB2FBF3F342
:10A9E8000493049B079A02FB03F3029AD31A029377
:10A9F800154A049B13441B7819460398FFF706FF72
:10AA0800079A019BB2FBF3F30793079B002BE3D153
:10AA18000B9B03F00103002B11D00A9B002B0ED0D7
:10AA280006E00A9B013B0A9320210398FFF7EEFEFC
:10AA38000A9B002B03D0069A0A9B9A42F1D300BFC7
:10AA480009B05DF804FB00BF6012040000B589B0CE
:10AA58000590049103920293049B002BB8BF5B42BC
:10AA680006930123079307E0039B069A92FBF3F3EF
:10AA78000693079B01330793039B069A9A42F3DADE
:10AA8800029A079B9A4201D9029B07930A9B002BC3
:10AA98000AD0049B002B04DB0B9B03F00403002B60
:10AAA80002D00A9B013B0A930B9B03F00203002B85
:10AAB80002D0029B002B16D00B9B03F00103002B46
:10AAC80011D10A9B002B0ED006E00A9B013B0A938A
:10AAD80020210598FFF79AFE0A9B002B03D0079ABE
:10AAE8000A9B9A42F1D3049B002B07DA049B5B4232
:10AAF80004932D210598FFF789FE08E00B9B03F0CE
:10AB08000403002B03D02B210598FFF77FFE0B9B36
:10AB180003F00203002B19D00B9B03F00103002B59
:10AB280014D1029B002B11D10A9B002B0ED006E0FA
:10AB38000A9B013B0A9330210598FFF767FE0A9BA1
:10AB4800002B03D0079A0A9B9A42F1D304990B9BD6
:10AB580001930A9B0093029B039A0598FFF7DEFE78
:10AB680000BF09B05DF804FB00B58FB005900491F3
:10AB78000392059B002B04D1C8494FF4A27008F03A
:10AB8800C7F8059B5B69002B04D1C4494FF4A37037
:10AB980008F0BEF8059B1B68002B04D1BF4940F2A2
:10ABA800471008F0B5F8059B5B68002B04D1BB493A
:10ABB8004FF4A47008F0ACF8049B002B00F0ED8172
:10ABC800049B1B788DF83730049B013304939DF860
:10ABD8003730002B00F0D8819DF83730252B40F016
:10ABE800C78100230A9301230C93049B1B788DF8DB
:10ABF80037309DF837302D2B04D0302B0AD02B2B33
:10AC080010D017E00A9B43F001030A93049B013319
:10AC1800049312E00A9B43F002030A93049B013356
:10AC280004930AE00A9B43F004030A93049B01334C
:10AC3800049302E000230C9300BF0C9B002BD4D19B
:10AC4800002309939DF837302A2B0CD1039B1B68EE
:10AC5800191D039A11601B68099A13440993049BF0
:10AC6800013304931AE0049B1B788DF837309DF864
:10AC780037302F2B12D99DF83730392B0ED8049B3B
:10AC880001330493099A13469B0013445B001A4648
:10AC98009DF837301344303B0993D3E700230B93D7
:10ACA800049B1B788DF837309DF837302E2B1DD13B
:10ACB800049B01330493049B1B788DF837309DF86F
:10ACC80037302F2B12D99DF83730392B0ED8049BEB
:10ACD800013304930B9A13469B0013445B001A46F6
:10ACE8009DF837301344303B0B93E4E7049B1B7803
:10ACF8008DF837309DF837306C2B03D09DF83730FE
:10AD0800682B07D1049B01330493049B1B788DF8AF
:10AD18003730EFE79DF83730253B532B00F223817E
:10AD280001A252F823F000BF65AF02006FAF020026
:10AD38006FAF02006FAF02006FAF02006FAF02008B
:10AD48006FAF02006FAF02006FAF02006FAF02007B
:10AD58006FAF02006FAF02006FAF02006FAF02006B
:10AD68006FAF02006FAF02006FAF02006FAF02005B
:10AD78006FAF02006FAF02006FAF02006FAF02004B
:10AD88006FAF02006FAF02006FAF02006FAF02003B
:10AD98006FAF02006FAF02006FAF02006FAF02002B
:10ADA8006FAF02006FAF02006FAF02006FAF02001B
:10ADB8006FAF02006FAF02006FAF02006FAF02000B
:10ADC8006FAF02006FAF02006FAF02006FAF0200FB
:10ADD8006FAF02006FAF02006FAF02006FAF0200EB
:10ADE8006FAF02006FAF02006FAF02006FAF0200DB
:10ADF8006FAF0200F1AE02006FAF02006FAF02004A
:10AE08006FAF02006FAF02006FAF02006FAF0200BA
:10AE18006FAF02006FAF02006FAF02006FAF0200AA
:10AE280081AE0200A9AE02006FAF02006FAF020050
:10AE38006FAF02006FAF0200A9AE02006FAF020051
:10AE48006FAF02006FAF02006FAF02006FAF02007A
:10AE58006FAF020031AF02006FAF02006FAF0200A8
:10AE680015AF02006FAF0200CDAE02006FAF020057
:10AE78006FAF0200F1AE0200039B1B68191D039A15
:10AE880011601B680C930C9B8DF81F309DF81F30C8
:10AE980019460598FFF7BAFC66E000BF0C120400DB
:10AEA800039B1B68191D039A11601B680C930A9B6E
:10AEB8000193099B00930B9B0A220C990598FFF7B5
:10AEC800C5FD51E0039B1B68191D039A11601B689F
:10AED8000C930C990A9B0193099B00930B9B0A22E4
:10AEE8000598FFF71BFD3FE0039B1B68191D039A9C
:10AEF80011601B680C930C990A9B0193099B0093A2
:10AF08000B9B10220598FFF709FD2DE0039B1B689A
:10AF1800191D039A11601B6808930A9B099A0899DE
:10AF28000598FFF799FC1FE0039B1B68191D039AFE
:10AF380011601B680C9330210598FFF767FC782196
:10AF48000598FFF763FC0C990023019308230093ED
:10AF5800082310220598FFF7E1FC05E02521059854
:10AF6800FFF754FC00E000BF049B0133049305E0A5
:10AF78009DF8373019460598FFF748FC049B1B7865
:10AF8800002B7FF41DAE00E000BF059B1B7B002B50
:10AF980004D00598FFF7DEFB00E000BF0FB05DF8B6
:10AFA80004FB00BF00B587B0059004910392059B90
:10AFB800002B10D1194A1A4BD31ADB081B0443F093
:10AFC8000100184A18490E2300930B46174905F04B
:10AFD80020FB0E231DE0049B002B10D10F4A104BC1
:10AFE800D31ADB081B0443F00100114A0E490E2353
:10AFF80000930B460D4905F00CFB0E2309E0059B59
:10B00800049A1A60059B1B681B6803990598984762
:10B018000346184607B05DF804FB00BF6C0E040039
:10B028000C0E04008012040024140400881204008A
:10B03800B412040010B586B00590049103920293EF
:10B04800059B002B10D1604A604BD31ADB081B0408
:10B0580043F001005E4A5F490E2300930B465E49A8
:10B0680005F0D7FA0E23ABE0039B002B10D1564A0C
:10B07800564BD31ADB081B0443F00100574A5549C5
:10B088000E2300930B46544905F0C3FA0E2397E0AC
:10B09800059B1B68002B10D14B4A4C4BD31ADB087D
:10B0A8001B0443F001004E4A4A49082300930B460B
:10B0B800494905F0AEFA082382E0029B002B10D123
:10B0C800414A424BD31ADB081B0443F00100454AAE
:10B0D8004049092300930B463F4905F09AFA092392
:10B0E8006EE0059B5B685A68029BB3FBF2F102FBBA
:10B0F80001F29B1A002B10D0334A344BD31ADB08C9
:10B108001B0443F00100384A3249092300930B46D7
:10B11800314905F07EFA092352E0049800F01EF93F
:10B128000346002B10D1284A284BD31ADB081B04EE
:10B1380043F001002D4A2749102300930B46264966
:10B1480005F067FA10233BE0039B184600F006F968
:10B158000346002B10D11C4A1C4BD31ADB081B04D6
:10B1680043F00100224A1B49102300930B461A4959
:10B1780005F04FFA102323E0029A0499059800F08D
:10B18800D3F80346002B10D10F4A104BD31ADB0813
:10B198001B0443F00100174A0E49102300930B4685
:10B1A8000D4905F036FA10230AE0059B1B68DC6898
:10B1B800089B0093029B039A04990598A0470346AD
:10B1C800184606B010BD00BF6C0E04000C0E04003B
:10B1D80080120400381404008812040014130400B8
:10B1E800BC120400D01204001C130400481304000D
:10B1F800601304008413040010B586B00590049110
:10B2080003920293059B002B10D13E4A3E4BD31A62
:10B21800DB081B0443F001003C4A3D490E23009320
:10B228000B463C4905F0F5F90E2368E0059B1B68C1
:10B23800002B10D1334A344BD31ADB081B0443F0DC
:10B248000100354A3249082300930B46314905F07D
:10B25800E0F9082353E0039B002B10D1294A2A4B1D
:10B26800D31ADB081B0443F001002C4A28490923A0
:10B2780000930B46274905F0CCF909233FE00499D0
:10B28800059800F078F80346002B10D11D4A1E4B94
:10B29800D31ADB081B0443F00100214A1C49102380
:10B2A80000930B461B4905F0B4F9102327E0059BD2
:10B2B8005B681B68039A02FB03F31A460499059816
:10B2C80000F032F80346002B10D10E4A0E4BD31A69
:10B2D800DB081B0443F00100124A0D4910230093B8
:10B2E8000B460C4905F095F9102308E0059B1B68EF
:10B2F8001C69029B039A04990598A04703461846BF
:10B3080006B010BD6C0E04000C0E04008012040080
:10B318004C14040088120400BC120400D01204006B
:10B32800AC130400D413040084B00390029101927A
:10B33800039BDB68029A9A4209D3029A019B134441
:10B348005A1E039B1B699A4201D8012300E000237F
:10B3580003F00103DBB2184604B0704782B00190D5
:10B36800019B03F00303002B0CBF01230023DBB276
:10B37800184602B0704782B001900091019B5B684B
:10B388001B685A1E009B1340002B0CBF012300238F
:10B39800DBB2184602B0704729DF704700BF184675
:10B3A80028DF704700BF184600B589B001900091AA
:10B3B800019B1B689B68002B35D002AB00221A60EA
:10B3C8005A609A60DA601A615A61009B0393019B84
:10B3D8009B680793019B1B79002B02D0012B0DD092
:10B3E8001AE001238DF80830019B1B690493019B27
:10B3F800DB680593019B5B6906930DE002238DF8DA
:10B408000830019BDB684FF4805202FB03F304937E
:10B41800019B5B69069300BF019B1B689B6802AA9E
:10B428001046984700E000BF09B05DF804FB00B57E
:10B4380087B00190019B5A69019B9B69D31AB3F5A8
:10B44800805F28BF4FF4805305930422059BB3FB0C
:10B45800F2F3012B38BF01230593019B1A69019B65
:10B468009B6913440493019BDB681A46019B9B6903
:10B4780013440393059A03990498FFF78DFF034635
:10B48800184607B05DF804FB00B583B00190019B36
:10B49800DA68019B1B6913441846FFF781FF0346CE
:10B4A800184603B05DF804FB08B5034B034918467A
:10B4B800FEF78FFE00BF08BD7030002098300020D6
:10B4C80008B5084B08491846FEF76AFE0246074BBE
:10B4D8001A60064B1B68002B14BF01230023DBB244
:10B4E800184608BD703000209830002094300020A5
:10B4F80000B583B02A4B1B7A002B0BD1FFF7E0FF76
:10B50800034683F00103DBB2002B03D0244B002257
:10B518005A6042E0224B02221A72224B1B681B79A6
:10B52800002B02D0012B07D00DE01E4B1B681846DC
:10B53800FFF77DFF019009E01A4B1B681846FFF7DB
:10B54800A3FF019002E00323019300BF019B002B9E
:10B5580002D0112B0CD00FE0114B1B7C83F00103A0
:10B56800DBB2002B18D00021022000F061F913E0B3
:10B578000B4B01221A7210E00A4B1B680321184674
:10B58800FFF712FF064B00221A72054B00225A6081
:10B59800FFF78AFF00BF00E000BF03B05DF804FBBF
:10B5A800803000209430002008B50848FEF79DFF41
:10B5B8000346002B08D1064B5B7C83F00103DBB20A
:10B5C800002B01D0FFF794FF00BF08BD8430002096
:10B5D8008030002084B001901B4B0022DA60019B70
:10B5E8001B79002B02D0012B19D028E0019B5A6946
:10B5F800019B9B69D31AB3F5805F28BF4FF4805332
:10B608000393019B9A69039B1A44019B9A61019BCE
:10B618009A69019B5B699A420ED1012310E0019B54
:10B628001B695A1C019B1A61019B1A69019B5B6982
:10B638009A4203D1012303E000BF00E000BF0023CA
:10B64800184604B0704700BF8030002082B00190D7
:10B65800084BDB680133074AD360064BDB68082BCD
:10B6680004D9044B0022DA60012300E000231846C5
:10B6780002B070478030002000B583B0019000917F
:10B68800019B0C4A5A600C48FEF72FFF0346002B1B
:10B698000BD111F089FD03461A46074B1A74074867
:10B6A8001C238C220649FEF707FD0023184603B029
:10B6B8005DF804FB60140400803000207030002026
:10B6C800E42F002000B583B00190009114220021DE
:10B6D800054812F05EFA054B1846FEF720FD0023D8
:10B6E800184603B05DF804FB80300020703000205D
:10B6F80000B587B00390029101920093174A04ABFA
:10B7080019461046FEF71FFD0590059B002B01D139
:10B7180004231FE01C220021059812F03AFA059B29
:10B7280000221A71059B039A1A60059B089A9A6071
:10B73800059B029A1A61059B019ADA60059B009A9B
:10B748005A61064A04AB19461046FEF715FDFFF785
:10B758002BFF0023184607B05DF804FB703000206B
:10B7680000B585B00390029101920093029B009A64
:10B778001946019812F0E4F90023184605B05DF85F
:10B7880004FB000000B587B003900291019200937A
:10B79800184A04AB19461046FEF7D5FC0590059BE0
:10B7A800002B01D1042320E01C220021059812F06F
:10B7B800F0F9059B01221A71059B039A1A60059BF3
:10B7C800009A9A604FF48052029BB3FBF2F2059BF9
:10B7D800DA60059B019A5A61064A04AB194610467D
:10B7E800FEF7CAFCFFF7E0FE0023184607B05DF835
:10B7F80004FB00BF7030002082B001900091009BD4
:10B80800184602B0704782B0019000910023184694
:10B8180002B0704782B00190044B1B7A002B14BF12
:10B8280001230023DBB2184602B0704780300020A5
:10B8380000B585B001900091019B022B02D0019BBD
:10B84800032B49D1274B1B7A012B35D0022B02D071
:10B85800002B43D033E000238DF80F30019B022BDF
:10B8680002D0032B09D011E01F4B1B681846FFF7C5
:10B87800B1FE03468DF80F3008E01B4B1B681846D5
:10B88800FFF7E4FE03468DF80F3000BF9DF80F3038
:10B89800002B13D0134B00221A72134B1A68019B0A
:10B8A800022B01D1002300E00D2319461046FFF7B3
:10B8B8007BFDFFF7F9FD01E000BF00E000BF094B89
:10B8C8005B7C83F00103DBB2002B02D0FFF710FE94
:10B8D80005E011F04DFC02E000BF00E000BF05B03C
:10B8E8005DF804FB803000209430002082B00346CD
:10B8F80000918DF80730064B01225A74044B1B7ACD
:10B90800002B0CBF01230023DBB2184602B070479E
:10B918008030002000B583B0034600918DF80730D1
:10B928009DF80730012B03D09DF80730032B0DD16C
:10B93800084B00225A749DF80730012B0CBF0123D5
:10B948000023DAB2034B1A74FFF7D2FD00BF03B02D
:10B958005DF804FB8030002000B583B001900198A9
:10B96800FEF71EFE0346184603B05DF804FB00B55B
:10B978008BB001900091019B1B8A043B0793009AAE
:10B98800079B1344DA1C079BB2FBF3F38DF81B30BB
:10B998000198FEF761FE0590059B002B01D100235D
:10B9A80038E0059B00221A71059B01225A71079BFA
:10B9B8009AB2059BDA80059B09939DF81B30013BE1
:10B9C8000493099B019A1A60002308931DE00198CB
:10B9D800FEF742FE0390039B002B0ED0059B5B797C
:10B9E8000133DAB2059B5A71099B039A1A60039BCB
:10B9F800019A1A60039B099304E0059800F00EF879
:10BA0800002307E0089B01330893089A049B9A4295
:10BA1800DDD3059B18460BB05DF804FB00B58BB071
:10BA28000190019B0793079B5B798DF81B30019B65
:10BA380008939DF81B30013B05930023099305E00B
:10BA4800089B1B680893099B01330993099A059B76
:10BA58009A42F5D3089B1B680493019B0893002323
:10BA680009930BE0089B1B68039308990498FEF759
:10BA78003DFE039B0893099B013309939DF81B30F6
:10BA8800099A9A42EED300BF0BB05DF804FB00B5EB
:10BA980085B00190019B0393039B04330121184651
:10BAA800FEF7F3FC00BF05B05DF804FB00B587B0F6
:10BAB8000190019B0593059B043301211846FEF76D
:10BAC800FCFC0346039303AB0493049B1B78002BF5
