:020000022000DC
:106000000000012079630200616302006363020003
:10601000656302006763020069630200000000001C
:106020000000000000000000000000006B630200A0
:106030006D630200000000006F63020071630200E4
:106040005195020073630200959902007363020088
:106050007363020073630200199802007363020005
:1060600073630200736302007363020073630200D0
:1060700073630200B19A020073630200736302004B
:1060800073630200A96D0200736302007363020070
:10609000456E020073630200C51B030073630200B8
:1060A0007363020073630200736302007363020090
:1060B0007363020073630200000000000000000030
:1060C0007363020073630200736302007363020070
:1060D0007363020073630200736302000000000038
:1060E00000000000000000000000000000000000B0
:1060F00000000000000000000000000000000000A0
:10610000000000000000000000000000000000008F
:10611000000000000000000000000000000000007F
:10612000000000000000000000000000000000006F
:10613000000000000000000000000000000000005F
:10614000000000000000000000000000000000004F
:10615000000000000000000000000000000000003F
:10616000000000000000000000000000000000002F
:10617000000000000000000000000000000000001F
:10618000000000000000000000000000000000000F
:1061900000000000000000000000000000000000FF
:1061A00000000000000000000000000000000000EF
:1061B00000000000000000000000000000000000DF
:1061C00000000000000000000000000000000000CF
:1061D00000000000000000000000000000000000BF
:1061E00000000000000000000000000000000000AF
:1061F000000000000000000000000000000000009F
:10620000364937480A1A02D0072291438D4635494C
:1062100035480A1A06D00722914381F309880222E1
:1062200082F3148831483249324A00F045F8324846
:106230003249334A00F040F832483349334A00F0DB
:106240003BF833483349344A00F036F83348344990
:10625000344A00F031F834483449354A00F02CF81B
:1062600034483549354A00F027F835483549002289
:1062700000F02DF834483549002200F028F8344861
:106280003449091A082903DB002202600430016046
:10629000314A90471F482049884205D0026804309F
:1062A00003B4904703BCF7E700208646EC46002085
:1062B00000212A4A9047FEE7884207D0521A05D0AB
:1062C000037801300B700131013AF9D170478842EF
:1062D00002D002700130FAE7704700000000012090
:1062E00000E00020000001200000012058AA030067
:1062F000A42B0020202C0020D8630200D8630200C9
:106300005454030058AA0300A42B0020A42B0020FF
:106310002056030020560300205603002056030099
:106320002056030020560300205603002056030089
:1063300058AA0300D4AA0300202C0020202C0020FF
:10634000202C002086420020884200208842002025
:106350008842002088620020A1630200A1C20200DE
:10636000FEE7FEE7FEE7FEE7FEE7FEE7FEE7FEE705
:10637000FEE7FEE7704700BF1048804710484FF027
:106380000701884385460F4880470F48016841F45C
:1063900070010160BFF34F8FBFF36F8FFFF730BF06
:1063A0000A480B490B4A884207D0521A05D0037895
:1063B00001300B700131013AF9D170477563020069
:1063C000000001201DC7020088ED00E00C5603000C
:0863D000902B0020A42B0020FB
:1063D800022003F0FDBF00002DE9F04781460D467D
:1063E80004F016F80328044604D8012D04D024D359
:1063F800022D2FD0BDE8F087194D47003A18A9188B
:10640800AE5C4A7852B1DFF86880164842464FF4CD
:10641800004100F0ABFE08B988F800903B192B4406
:106428009A78114B1A55002EE4D0104B1B68002B9C
:10643800E0D03046BDE8F04718470A4800F0DAFED9
:10644800074B04EB440213449E78074B1B5DB34291
:10645800D0D1E8E7024B00EB40041C446678E2E741
:10646800842C0020442C00209D2C0020982C0020F7
:10647800202C002002210078FFF7AEBF08B5094B99
:106488001B7853B1002003F079FF012003F076FF59
:106498000320BDE8084003F071BFBDE8084003F0E1
:1064A80079BF00BF212C0020F8B57B4C2378054626
:1064B8001BB100232370FFF7E1FF172D00F288803E
:1064C800DFE805F00C17174354657680888D888DB2
:1064D800959A9A9A9A9AC4C9D1D9E4E4FFF7CEFF5B
:1064E8006E4800F087FE6E4B002204461A70204664
:1064F800F8BD002003F028FFF8B1002003F03EFFAC
:10650800022D0CBF4FF4E1614FF47A61644B1D70AA
:106518004FF400404FF4FA740025E0FB01454FF4B6
:106528007A720023204629460BF037FD00220146E7
:106538005A48BDE8F84000F019BE03F013FF022DD9
:106548000CBFC8214FF4C871E0E7002003F0FCFE3F
:1065580040B1002003F012FF4FF44871504B032262
:106568001A70D5E703F0FEFEC821F7E7002003F014
:10657800EBFE38B1002003F001FF4FF47A61484B7D
:106588000422EDE703F0EEFE4FF4C871F7E70020B0
:1065980003F0DAFE48B1002003F0F0FE404B05227C
:1065A8001A7041F69A110022C2E703F0DBFEF5E704
:1065B800002003F00DFF3A4B06221A70002240F625
:1065C800CD41B5E7002003F0CDFE354B07221A7008
:1065D80000248CE70120207003F0FAFEEEE701208A
:1065E800207003F0F5FE00224FF48041A0E703F08D
:1065F800E0FE2B4B0C22EAE72A482B4E00F0FAFD6E
:10660800D5F1110504461CD0D8B9012D13D0C823E3
:106618005D434FF400474FF4FA7000214FF47A724B
:106628000023C7FB05010BF0B8FC224601461D48B4
:1066380000F09CFD0446022003F094FE0123337011
:1066480055E7022003F09AFE0023F8E7FFF716FF4C
:10665800134B1222BBE7FFF711FF002003F082FE65
:106668000F4B1322B3E7FFF709FF012003F07AFE6F
:106678000B4B1422ABE7FFF701FF002003F072FE7B
:10668800012003F06FFE064B1522A0E703F091FEF0
:10669800034B1D709CE700BF942C0020642C002045
:1066A8009C2C0020242C0020212C0020044B1B684B
:1066B800DB0703D5034B1878FFF7F6BE704700BF1A
:1066C800902C00209C2C0020032801D803F092BEB7
:1066D80000207047044B1B6813F0010301D0FFF73B
:1066E800E3BE1846704700BF902C002038B51C4BFD
:1066F80018601C4B10F00204054619601AD01A4B9A
:106708001A480E221A700F22DA7010229A7111227A
:106718005A72042140F2666200F02AFA044648B927
:1067280000F07AFA044628B90146114A114800F0E7
:106738000BFD0446EB0711D5012003F081FE6CB96F
:1067480021460D4A0D4800F0FFFC044630B90C4ABA
:106758000C480121BDE8384000F0F6BC204638BDA1
:10676800902C0020982C0020842C00202056030018
:106778007D64020044560300B566020048560300D3
:10678800D963020040560300032812D8012A0BD10E
:10679800012908D100F10E02D2B200EB40000C4BE7
:1067A8001A540020704700220129F6D009D3022983
:1067B80001D007207047064B00EB40001844427098
:1067C800EFE7034B00EB400018448270E9E700BF95
:1067D800842C0020032808B512D803F02BFE800073
:1067E80000F1A040D0F8003723F44033C0F8003758
:1067F800D0F8003743F44033C0F80037002008BD14
:106808000620FCE708B5012202210020FFF7BCFFA3
:1068180008B1072810D1072202210120FFF7B4FF91
:1068280008B1072808D100210A220846FFF7ACFF63
:1068380010B1072808BF002008BD00000388102BEE
:1068480010B502D0112B1ED010BD1A4C2168B1B959
:1068580001220846FFF798FF08B1072824D107222C
:1068680002210120FFF790FF08B107281CD104225C
:1068780002210020FFF788FF08B1072814D12368F8
:1068880001332360E0E70B4A1368013B1360002BD8
:10689800DAD1FFF7B7FF0028D6D0074B1B68002BCB
:1068A800D2D0BDE810401847034B1B68002BE6D038
:1068B8009847E4E7A82C0020A42C002008B5002065
:1068C800FFF788FF08B1062806D10120FFF782FFED
:1068D80010B1062808BF002008BD00000D4B10B5F8
:1068E80018600C4629B10120FFF7EEFE40B10223E3
:1068F8002370094B1B6853B9BDE81040FFF782BFEE
:10690800FFF7E2FE08B10B23F2E72070F1E7002061
:1069180010BD00BFA42C0020A82C002005F028BA28
:106928000021084605F0D8B910F1360F0AD058B141
:1069380048F2115248F2165310F1380F0CBF1046A6
:106948001846704748F21450704708B50846114673
:1069580002F048FD002008BD37B50446002002F0CB
:10696800C3FC054678B90434204604F00EFF0095B0
:106978002B462A460549204604F081FF03B0BDE8AE
:106988003040FFF7D1BF03B030BD00BF53690200EC
:1069980008B5043004F0FEFE02F0D2FC002008BD69
:1069A80008B5043004F0D0FFBDE80840FFF7BCBFCD
:1069B80008B5114604301A4604F0FBFEBDE808404D
:1069C800FFF7B2BF2DE9F04F3B4F89B000263B4B94
:1069D8001B78F5B2AB4202D809B0BDE8F08F384B4E
:1069E800196811F835000124A0F12002C0F1200334
:1069F80004FA02F924FA03F349EA0309D7E9002360
:106A080004FA00F8CDE9042302EA080203EA0903BC
:106A1800134301EBC50B4CD0DDE9042322EA08023D
:106A280023EA0903C7E90023079102F0E7FE079963
:106A3800844611F83500A0F12002C0F1200324FAA1
:106A480003F304FA02F21A4304FA00F300931D4B0D
:106A58000192DDE90045D3E9002314401D40224698
:106A68002B465FFA8CF40025CDE90445049CA0F17F
:106A78002005AC400394049CC0F1200124FA01F1E4
:106A8800039C0C430499039481400291DDE902457B
:106A9800AB4208BFA2420CD19BF801104B1E5942D1
:106AA8005941A1EB0C02DBF804305142514103B1CA
:106AB800984701368BE700BFE02C0020AC2C002063
:106AC800E82C0020D82C00202DE9F84F0646244851
:106AD80000F090FB002841D10123A6F12001C6F166
:106AE800200203FA01FB23FA02F203FA06FA1D4B0D
:106AF800D3E900014BEA020B00EA0A0801EA0B0994
:106B080058EA09021F4623D1304602F077FE164B99
:106B1800B8B1D3E9000140EA0A0441EA0B05C3E928
:106B28000045D7E900234BEA0305104B0C481968C8
:106B38004AEA0204C7E900450022BDE8F84F00F020
:106B480015BBD3E9000120EA0A0421EA0B05E6E7B0
:106B580020EA0A0421EA0B05C3E90045BDE8F88FDD
:106B6800B42C0020E02C0020D82C0020B02C0020D1
:106B7800042A2DE9F34105460C4616463AD902F097
:106B880075FDD8B11C4B1D491D601D4BDFF8848075
:106B98001C701C4B00221E600023C1E900231A4907
:106BA800C1E90023013CE4B200260327FF2C0CD1E5
:106BB800164A1748002100F0C7FA03E002F020FD4A
:106BC8000028DFD002B0BDE8F08123B205EBC30294
:106BD80001A992788DF8052015F833008DF8066024
:106BE80042468DF8047002F04BFD013CE4B20028E7
:106BF800DCD0E7E70720E5E7E82C0020D82C0020C8
:106C0800AC2C0020B02C0020E02C0020CD69020024
:106C18004C560300D16A020070B5084D084E002496
:106C28002B789C4201D3002070BD3368012113F8F2
:106C3800340002F09DFD0134F2E700BFAC2C0020C7
:106C4800E82C00201FB50021039001AA44F201009E
:106C5800CDE9011100F004F805B05DF804FB00006F
:106C680010B572B603F0DEFF03F00CFE0028FBD16E
:106C7800104B114C1149E41AE408240444F00100B3
:106C880003F06CFF0E4B1B68DB0700D500BE0D49F7
:106C980044F0020003F062FFBFF34F8F0A490B4B29
:106CA800CA6802F4E0621343CB60BFF34F8F00BFA2
:106CB800FDE700BF1C5503004C5503005056030068
:106CC800F0ED00E05C56030000ED00E00400FA057A
:106CD800094A537891780133DBB2994208BF0023FF
:106CE800117899421FBF03705078182303FB0020C6
:106CF80014BF043000207047EC2C002073B5054603
:106D080002A8002400F8014D0E4600F08DFA0DF19E
:106D18000600FFF7DDFF90B106700A4B9DF80620CC
:106D280045605A709DF8070000F0A2FA24B9064B96
:106D38004FF48012C3F80021204602B070BD04242D
:106D4800F0E700BFEC2C002000E100E0024B4FF41C
:106D58003C6043F0010318477056030038B50C4BEC
:106D68000C4C4FF40032C3F8802001254FF48033D7
:106D7800C4F84833C4F808336560FFF7E7FF064BEB
:106D8800A56000241C60FFF7E1FF044B1C7038BDB0
:106D980000E100E000100140082E0020F92D00203D
:106DA800F8B51F4B1F491B680025C1F84051C1F8B1
:106DB8004451C1F84851C1F84C51C1F80051C1F8CB
:106DC80004514BB3D1F8044517490968641A24F0F3
:106DD8007F442F461A68A24209D8A41A15441A7C7F
:106DE800DE691AB11F74D3E905209047AEB90F4B7D
:106DF8000F4A197813788B4205D10133DBB2022B85
:106E080008BF0023137012780A4B43F822500A4B2C
:106E18004FF48012C3F80021F8BD3346DAE700BF0B
:106E28000C2E002000100140082E0020042E002007
:106E3800052E0020FC2D002000E100E02DE9F74F91
:106E48009E4A9F49137809789E4D99423CD0013358
:106E5800DBB2022B08BF002313709B4912789B4BAF
:106E68000F6853F822003B1823F07F4300220B6081
:106E78002B6816461446944613B942B12B6006E0B7
:106E8800196881420ED902B12B60091A19604FF0B6
:106E980001082B68DFF83CA200930027BEB9DFF891
:106EA8003CB260E0401A0C44D968C3F800C0D3F87B
:106EB8001CE031B13A1922F07F42C3E90121DE61B9
:106EC8001E4601227346D7E70026B046E1E734465E
:106ED800F6697D4A63681268DFF804C2A068991AE7
:106EE80021F07F41614500F2A58001442160012223
:106EF80022742A680023C4E90133E361002A40F0C0
:106F0800A2802C60CAE75A1C9BF80210D2B29142A8
:106F18008BF8002004BF00228BF80020182202FB07
:106F280003B32A6819799C68022974D003297ED092
:106F3800012918D1217CB1B9DA6862601A69A260A6
:106F48005A699B69A361624BE2601B78002BC0D031
:106F58006160BEE79C4200F093809946DB69002B94
:106F6800F8D1002323749BF800309BF801209A4243
:106F7800C9D12B682FB9009A934202D1B8F1000FFA
:106F880043D0002B79D0D3F800A0524D4E4BD5F802
:106F980004751C68DFF84C813E1B98F8003026F019
:106FA8007F4603369BB94FF48033C5F84433C5F8A0
:106FB8000433494B4FF400324FF00109C3F88021E4
:106FC8001A60C5F80090FFF7C1FE88F80090B24536
:106FD8002CBF5444A41924F07F44C5F84045D5F883
:106FE8000435DB1B23F07F43E41B033324F07F4489
:106FF800A3420AD9D5F80435C5F84035FFF7A6FEEF
:10700800354B4FF40032C3F80021314B00221A707F
:1070180003B0BDE8F08F13469146A0E71174D2691A
:107028000123002AFAD1002B9DD02A609BE7002378
:107038001946F6E7D31A23F07F43834234BFC31AB5
:107048000023236053E721681368994213D8591A1B
:107058001160E26155E7091AD8691A4638B1034642
:1070680018688842F7D3401A1860184613462160FA
:10707800E061DC6112E71346F2E7FFF76FFEC4E751
:107088004C450DD1D3692B6053B90F4801920121AA
:10709800CAF8081003600E4B1970FFF757FE019AE3
:1070A800E1692368C9F81C1011B1086803440B6032
:1070B8002B689A4218BF012753E700BF042E00200F
:1070C800052E00200C2E0020082E0020FC2D00206C
:1070D800F82D00200010014000E100E0EC2C002019
:1070E800FEFF7F00F92D002008B5FFF737FE104B93
:1070F80000200B2218809A700E4B18600E4B1870E7
:107108000E4B18700E4B4FF48012C021C3F880212B
:1071180083F814131A6002F18042A2F56F22C2F8B4
:10712800080583F81113074BD2F804251A6008BD27
:10713800EC2C00200C2E0020042E0020052E002010
:1071480000E100E0082E0020074B9B784BB132B1DC
:1071580028B10368187C20B959745A617047072010
:1071680070470820704700BFEC2C00202DE9F7433A
:107178001D4FBB7805460E4690469BB390B3042935
:107188002ED9436973B3437C02A80024012B00F86D
:10719800014D0CBF8946A14600F046F80DF10600E6
:1071A800FFF796FDD0B101230370104B4560D3F86B
:1071B8000435C0E90498C0E902369DF806307B70B2
:1071C8009DF8070000F054F824B9094B4FF48012D9
:1071D800C3F80021204603B0BDE8F0830424EFE79C
:1071E8000724F7E70824F5E7EC2C002000100140FD
:1071F80000E100E0064A92783AB130B1426922B122
:10720800002202740221FFF779BD0820704700BFF1
:10721800EC2C0020014BD3F8040570470010014006
:10722800401A20F07F40704770B5EFF3108672B6B1
:107238000C4A946801239CB993600B4B0B4DD3F80F
:10724800801029401160C3F88050D3F88410516031
:107258004FF0FF32C3F88420047006B962B670BDDF
:107268000370FAE7102E002000E100E0FC06FFBDE5
:10727800084B9A6810B55AB150B9EFF3108172B63D
:10728800054A1C6814605C685460986001B962B66D
:1072980010BD00BF102E002000E100E070B5064EC2
:1072A8000546002456F824300BB128469847013487
:1072B800042CF7D170BD00BF282E0020033080B207
:1072C80040F2FD33984230B51FD8124B1A783AB9BC
:1072D8001C895D892C440444A4B2B4F5806F0AD398
:1072E8001A7DA2B99A8BDC8B2244024492B2B2F581
:1072F800806F0CD201220A801446142202FB043348
:107308005A8910445881002030BD0920FCE7072025
:10731800FAE700BF5C2E00200B4A0C4B5188142062
:1073280000FB0131CB6833B9042049681070012291
:10733800074801F0D1BA05230649137002238B8050
:10734800012200230968F3E7402E00205C2E00206C
:10735800902B0020242F002007B500230549009317
:10736800054A09680548082301F020FA03B05DF8CA
:1073780004FB00BF242F002084560300902B00201C
:1073880007B50023009301460823034A034801F088
:107398000DFA03B05DF804FB7C560300902B002027
:1073A80013B500230C46009301460423074A0848F6
:1073B80001F0FCF938B9074B142202FB043401230D
:1073C800237402B010BD0E20FBE700BF78560300FF
:1073D800902B00205C2E002037B50A480A4B4268E3
:1073E8009C88196853880325033305709BB20020D5
:1073F80000909B0001EB8401044801F0D7F903B029
:1074080030BD00BF402E0020242F0020902B0020EC
:1074180010B50146044800F048FE1C22044600212D
:107428000AF0FBFE204610BD102F002043880333CE
:1074380000EB8303994209D382884FF6FF739A427F
:1074480006D00088B0FA80F04009704702207047E3
:10745800012070472DE9F8430223DFF860800B8094
:107468000D46174600F5805600F108044FF0010953
:10747800B4420FD2236801330CD031462046FFF7BF
:10748800D5FF48B10FB187F8009002280BD14FF40F
:1074980080632B80BDE8F883A368D8F80020934266
:1074A80001D9C8F800302B886288033313442B8035
:1074B8006388033304EB8304DAE700BF542E00200B
:1074C800144A142303FB002070B50B6844680D466A
:1074D80004F580569BB15C88033403EB8404B44202
:1074E8000BD22368013308D031462046FFF79EFFB0
:1074F800012809D005D30228F1D1002003E008347F
:10750800EDE72C60012070BD6388033304EB83042E
:10751800E5E700BF5C2E0020436873B505460C46BE
:107528006BB3254AD1688B4229D31269934226D876
:1075380013F0030223D121490089098988421ED109
:107548002868996888421AD11D494868834203D936
:1075580000F5805083420ED38A6993420DD902F513
:107568008052934209D2012323800020B0FA80F090
:10757800400902B070BD1346F6E70A20F6E700237B
:1075880023801E462388012B01D90020F1E70196AC
:1075980001A92088FFF794FF18B9238801332380B5
:1075A800F0E7019B2A6899689142F1D16B60034B1F
:1075B8001B892B81DDE700BF902B0020402E002087
:1075C8005C2E00202DE9F8431C461E4B1B7806460E
:1075D8000F461546002B30D0002A30D07CB3DFF898
:1075E8006C804FF01409A388012B01D90A201AE0F6
:1075F80009FB03F318F80330BBB1A3880133A38058
:10760800F1E723681EB19988328891420DD11FB1E4
:1076180019883A88914208D19A68C5E900230A4B2B
:107628001B892B810020BDE8F8832146A088FFF73D
:1076380047FF0028E5D12060DFE70220F3E70520B7
:10764800F1E700BF382E0020402E00205C2E0020DD
:1076580008B5074B191D5888FFF732FF18B1BDE868
:107668000840FFF7B9BEBDE80840FFF755BE00BFA8
:10767800402E00202DE9F04FA04FDFF8A49289B0EA
:107688000646B8463B6823B949469D4800F047FD81
:107698003860D8F8005029784B1E052B00F212816B
:1076A800DFE813F0060076007600060106015D01AA
:1076B80026B1944B00225A60012424E02B79032B35
:1076C8001DD8DFE803F01502424D8F490B78022BD5
:1076D800084631D00B7D022B4FF001032ED1142226
:1076E8005343C2180020C8545068FFF749FE03E00E
:1076F80001232B71FFF730FE002800F0D380814B67
:1077080000225A600E241422002103A80AF085FDE5
:1077180041F61D539C4208BF0024D8F80030049459
:107728001A78023A042A00F2D381DFE812F0B40191
:10773800C001E301EB01F2010023D0E7714A1370A5
:107748000023536041F61D54DDE77049704800235B
:1077580002222B718A800122096801F0BDF8CBE76B
:107768006A4C00262E712068674DFFF709FE694BA9
:10777800D4F800C05A8814235343EA18EE545168C9
:107788002160A188C2F804C011810222A280B3E757
:10779800B5F814A0AA7DDFF870B1AEB1022AEB8863
:1077A80006D9142101FB0AB1DA1C088902440A81AE
:1077B800142202FB0ABAC3F57F43BAF80A20FD3344
:1077C8001344AAF80A3077E7142303FB0AB318898D
:1077D8005C6804EB8004062A05D8DFE802F0264C32
:1077E80034421C5866000F24AA7DEB88022A06D969
:1077F800142101FB0AB1DA1C088902440A81142207
:1078080002FB0ABAC3F57F43BAF80A20FD331344D2
:10781800AAF80A3077E74048404900234360AB693B
:107828000360FFF779FE00285AD00223AB750023C6
:1078380000930423EA182146354800F0B7FF0028D2
:1078480030D00E24D0E72B69002B0CBF0123032373
:10785800AB750023009305F10C02042304F1080121
:10786800EAE70123AB750022EB8800929B002A69A6
:1078780004F10C01E0E7032914BF06230523AB75C7
:1078880000230093042305F10802E118D4E7062336
:10789800AB75224B1988204B5868FFF781FD0446C9
:1078A8000028A1D109B0BDE8F08F41F61D549BE72F
:1078B800002E7FF401AF2B79012B33D004D3022B98
:1078C8003FF440AF0F241EE702232B710DF10A018C
:1078D800EB68039303A8CDE90466FFF71DFE08B91A
:1078E8000A2410E70498BDF80A108388EB800388FF
:1078F8002B81FFF755FD044627E000BF582E0020D6
:10790800102F0020382E00205C2E0020242F00206D
:10791800902B0020402E00201C2E0020302F00200D
:10792800502E0020DFF808A203AA53463146A81DAE
:10793800FFF748FE044660B9BAF804100498FFF748
:107948002FFD04460A2C3FF4FDAE002C7FF4DBAE7D
:10795800A8E70822314650460AF05FFCF2E7002EFD
:107968007FF4AAAE6D4B1A7BB2B11E731A78013A36
:10797800062AA7D801A151F822F000BF2B7A0200ED
:10798800517A02006F7A0200757A0200CD780200FF
:107998007B7A0200917A02001A78072AE6D801A1B8
:1079A80051F822F0CD79020075790200757902004C
:1079B800F3790200077A0200277A0200277A020088
:1079C800EF7902001A89564901321A8100225A8039
:1079D8001A730A78B2FA82F252099A720A7DB2FAD6
:1079E80082F25209DA72012207E04E4958688A8801
:1079F8004088033202448A8002221A70B6E7484C53
:107A08005A884849142505FB0242086854685060A2
:107A18008888108102228A800C600622EDE70722FE
:107A2800EBE79A7A32B9DA7A8AB900221A705A8060
:107A38005A6087E63A4900229A72CA68002AF2D147
:107A4800097C0029EFD05A80FFF702FE53E7002295
:107A5800DA72334A116A0029E7D192F82420002A01
:107A6800E3D00122EFE7FFF7B7FC44E7FFF754FC48
:107A780041E706221A702A4A5B88142101FB032376
:107A88005868FFF77DFC36E707221A7000225A6013
:107A9800FFF762FC2FE701228DF80C201A89ADF858
:107AA80018209A88DB68ADF81A20059310E00222A6
:107AB8008DF80C201A89ADF818209A88ADF81A208C
:107AC800DA689B7D05929A1F534253418DF81C300A
:107AD80003A8FFF7E3FB002649461348C8F80060EF
:107AE80000F048FB0121114800F0F7FB00287FF463
:107AF800C9ADD7E603228DF80C20DA88ADF8182036
:107B08001A89CFE70422DB888DF80C20ADF81830ED
:107B1800DEE705238DF80C30DAE700BF402E0020A1
:107B28005C2E0020242F0020102F0020202F002062
:107B3800342F00204068FFF79DBD000008B50121E3
:107B4800044800F0B4FB18B9BDE80840FFF792BD3F
:107B580008BD00BF202F00202DE9F3419846354B82
:107B68001B7806460D46002B5BD000295BD00988A0
:107B78004FF6FF73994258D06B88002B55D06B682D
:107B88009B0754D14AB92F890DF102013846FFF7F6
:107B980095FB30B102B0BDE8F08113885788ADF885
:107BA800023001A8FFF734FC044658B9BDF802308A
:107BB800214A142101FB032358890338C01B58812B
:107BC8000820E7E700238375BDF8023083826B68DD
:107BD800036180F800800121184800F073FB2B88AE
:107BE8002381B8F1030F6B88A38004BF0423A37516
:107BF8004FF0000508BF3368E06008BFA361E78065
:107C0800658101A90E4800F07AFA36B1E36833605D
:107C18000C4B75601B89B5723381FFF78FFF00200D
:107C2800B8E70220B6E70520B4E70420B2E703204E
:107C3800B0E700BF382E00205C2E0020542E002014
:107C4800102F0020402E002008B5084B1A68042A7F
:107C580009D01968064A42F821000121184600F0A7
:107C680031FB002008BD0C20FCE700BF2C2F0020B2
:107C7800282E00202DE9F04F89B01422002103A8F6
:107C88000AF0CBFA7D4A137803F0FF010091904681
:107C98003BB103A8FFF702FB0026304609B0BDE858
:107CA800F08F101D00F024FB05460028F4D140F6A3
:107CB800F8734FF080521B68DFF8ECA15C1C04BF1E
:107CC8006F4B1B6811695269581C08BF02FB01F30E
:107CD800CAF810300022A3F540536A49CAF80C309C
:107CE800504600F02FFD06460028D6D11C238C22D2
:107CF8006549664800F0A4F93746B3464FF00309D2
:107D08003446CDF804A0019BD9680BEB010002466C
:107D18005BF80110002835D05D4B994232D141689B
:107D28005C4B994215D0013399422BD1009BDFF867
:107D380070A1002B59D100225749CAF80000FFF75B
:107D480089FBBAF80420022A14BF08220422174328
:107D58003AE052494FF0140C0CFB04FC01EB0C0206
:107D68004FF0000E01F80CE050600CF110020CF11D
:107D7800080C0A446144FFF76DFB47F00207013421
:107D8800A4B221E000F5805C1168013167D10432AA
:107D98009445F9D1424A116829B90221012310609A
:107DA800918000930EE0142262433C4B4FF0020E88
:107DB800991803F802E03B4A486054800134A1F85E
:107DC80008E0A4B247F001070BF5805BBBF5405F04
:107DD80099D1B9F1010F88BF3D46EDB2022D02D00D
:107DE800062D12D0DDB90B2657E72C4B142262431F
:107DF80099184FF0020C03F802C00134DAF8002099
:107E08004A60A1F808C0A4B295E7012388F80030B9
:107E180003A80023C8F80430FFF740FA3DE702A89A
:107E2800FFF7F6FAC8B10123013D03700A2D09D8FE
:107E3800DFE805F006080608070807080F110F0015
:107E48000023037102A9114800F059F9FFF776FEE3
:107E580023E70323F5E70223F3E708261DE70F4985
:107E68001422624301EB020C09F1FF39CCF804003B
:107E780003201FFA89F9885481E700BF382E0020B3
:107E88001410001080580300842E0020102F0020AA
:107E9800DEC0ADDEFE011EF1282F00205C2E002082
:107EA800242F0020402E0020902B002073B50D4673
:107EB8000446C8B1C1B10DF10601FFF72DFBA8B109
:107EC8000B4BBDF806006668142202FB0030012146
:107ED8000C3000F0F7F963682E600C336B600123F7
:107EE800A372002002B070BD0520FBE70A20F9E765
:107EF8005C2E002013B50446A8B10DF10601FFF76A
:107F08000BFB90B10B4ABDF80630142101FB03238B
:107F1800DA6862B1A27A52B1DA680020013ADA600E
:107F2800A07202B010BD0520FBE70A20F9E7062081
:107F3800F7E700BF5C2E002002230022FFF70CBEEB
:107F480018B103230022FFF707BE05207047000081
:107F5800104B1B7813B50446ABB14FF6FF7398422C
:107F680013D001A8FFF754FA88B105230370012341
:107F78000371C48001A9084800F0C1F8FFF7DEFDCD
:107F8800002002B010BD0220FBE70420F9E708201A
:107F9800F7E700BF382E0020102F00200E4B1B786B
:107FA80007B5A3B101A8FFF733FA90B10623037010
:107FB80001A90A4800F0A3F8094B1A780AB101226E
:107FC8001A73FFF7BBFD002003B05DF804FB022025
:107FD800FAE70820F8E700BF382E0020102F00200D
:107FE800402E002007B5ADF8060002A820F8041DB1
:107FF80001460DF10600FFF7E5FA03B05DF804FB52
:1080080013B502AC134624F8020D0A460020214697
:10801800FFF7D8FA02B010BD13B502AC134624F826
:10802800020D0A4620460021FFF7CCFA02B010BD27
:1080380020B119B103680B60002070470520704714
:1080480010B561B1B2FBF3F403FB1424A4B244B934
:10805800C0E9001484608281C381204610BD0E20CF
:10806800FCE70920FAE782B050E8022FC188B2EB9A
:10807800324F4FF0000317BF92B241EA014142EA82
:10808800014104E04268B2EB324F08BF012340E8E7
:108098000212002AE8D18DF807309DF80730002B2E
:1080A8000CBF1120002002B0704737B550E8013FDF
:1080B8009DB2C48925448489A54228BF2D1B048903
:1080C800A54202BFBFF32F8F002207E0C5EA0305D0
:1080D80040E80154002CE9D14FF001028DF803204B
:1080E8000193019B9DF803200B6002F0FF0322B16E
:1080F8000B880068184403B030BD1846FBE70A88AF
:108108004B889A4209D150E8012FC2EA024240E85E
:108118000123002BF7D1012070470020704737B5A5
:1081280050E8023F1FFAA3F5C488A54202BFBFF377
:108138002F8F00220DE0C48925448489A54228BFD9
:108148002D1BC3EA054540E80254002CE8D14FF046
:1081580001028DF803200193019B9DF803200B6019
:1081680002F0FF0322B14B880068184403B030BD09
:108178001846FBE70A884B889A4209D150E8022F33
:10818800C2EA224240E80223002BF7D101207047BF
:108198000020704701F01F024B090121914000EBBC
:1081A800830000F063B84B0910B501F01F040121EA
:1081B800A14000EB830000F04EF8E04000F0010021
:1081C80010BD01F01F0301229A404B0900EB830008
:1081D800D14300F061B84B0901F01F0150F82300AA
:1081E800C84000F0010070472DE9F0474E1E76099F
:1081F80080460F460136002558F8254008EB850AC9
:10820800E44394FAA4F4B4FA84F44FEA4519202C10
:1082180006D10135AE42EFD83C462046BDE8F0878E
:108228004C44A742F5D921464046FFF7BCFF002839
:10823800F3D0DAF80040E44394FAA4F4B4FA84F4EE
:10824800E5E750E8002F0B4640E8003C9CF0000FA3
:10825800F7D11046704750E8002F42EA010340E882
:10826800003C9CF0000FF6D11046704750E8003FE4
:1082780043EA010240E8002C9CF0000FF6D11046BA
:10828800704750E8002F02EA010340E8003C9CF0E8
:10829800000FF6D11046704750E8003F03EA01028C
:1082A80040E8002C9CF0000FF6D11046704750E8CB
:1082B800002F02EB010340E8003C9CF0000FF6D1D0
:1082C8001046704750E8003F03EB010240E8002CDD
:1082D8009CF0000FF6D11046704750E8003FA3EB22
:1082E800010240E8002C9CF0000FF6D110467047C0
:1082F8000121FFF7B0BF0121FFF7B8BF0021FFF749
:10830800C0BF10B590B1D0E9012301689B1ADBB258
:108318000A60013BDBB2FF2B026802D1002010711A
:1083280010BD11684C1C14600B70F2E70E20F7E7C3
:1083380037B5054602A8002400F8014DFEF774FF82
:108348002A686B68116899420ED9481E106011F8A6
:10835800014CEB68298A01FB0434AB6811791B1ABC
:10836800DBB2994238BF13719DF80700FEF780FF12
:10837800204603B030BD37B5054602A8002300F8F3
:10838800013D0C46FEF750FF2A681368591C11601E
:10839800E968641A298AB4FBF1F41C709DF8070097
:1083A800FEF766FF03B030BD826810B504462AB1F7
:1083B80043690168006998470023A36010BD0EB4A3
:1083C80003B5039929B102AA04AB42F8043D00F0B1
:1083D80073F802B05DF804EB03B070470A2938B5AA
:1083E80004460D4602D10D21FFF7F8FFA368226865
:1083F800591CA160D554D4E901329A4204D32046CD
:10840800BDE83840FFF7D0BF38BD00002DE9F84F70
:108418009946DDE90A431746824688460A460126F8
:10842800BA420FD24E4538BF4E4613F0010B01D168
:1084380064B900240125B9F1010F1AD909F1FF39EE
:108448007D43F8E7B2FBF7F20136E9E79B070ED563
:10845800B9F1000F0CBF30252025A642EAD2013C15
:1084680029465046FFF7BAFF002CF6D1E1E7202550
:10847800F3E7B8FBF5F39F42E2D9DFF83890B8FB91
:10848800F5F3504619F8031005FB1388FFF7A6FF0C
:10849800B5FBF7F5002DF2D1BBF1000F02D00CB1FE
:1084A800A64201D3BDE8F88F20215046013CFFF7D2
:1084B80095FFF4E7955603002DE9F74F05469046DA
:1084C8000E46002900F03A8116F8011B002958D001
:1084D800252940F0D180002702E047F00107164621
:1084E800324612F8013B2D2BF7D0302B04D02B2B22
:1084F80005D147F00407F2E747F00207EFE7002449
:108508002A2B06F101021BD1D8F80030191D1B686F
:10851800C8F800101C44164633782E2B1CD101369F
:108528004FF0000A314611F8012BA2F1300009285A
:1085380014D80A2303FB0A23A3F1300A0E46F1E7F5
:1085480012F8013CA3F130010929E5D80A2101FB01
:108558000434303C1646D3E74FF0000A324612F88E
:10856800011B01F0FB0068281646F8D0692916D0CF
:1085780054D8582970D00ED825297DD03378002BAF
:10858800A2D12B7B002B00F0D980284603B0BDE890
:10859800F04FFFF709BF632968D06429EED1D8F8F6
:1085A8000020D2F80090111D89EAE972C8F800107D
:1085B800A2EBE9724FF0010B092A61DCD34538BF01
:1085C800D3462CB1B9F1000F01DB790700D5013C86
:1085D800BA0702D5BAF1000F04D0FB0702D4002C69
:1085E80054D10024B9F1000F58DAC9F100092D213E
:1085F8002846FFF7F3FE07F00302022A05D1BAF175
:10860800000F02D1002C4DD10024CDE9004753467C
:108618000A2249462846FFF7F9FEAFE7732954D0E6
:1086280016D87029AAD1D8F800301A1DC8F8002029
:10863800302128461C68FFF7D1FE78212846FFF72D
:10864800CDFE00220823CDE9003221461022E1E7C1
:1086580075292FD0782991D1D8F800100A1DC8F8AB
:108668000020CDE90047534610222CE0D8F800300E
:108678001A1D1978C8F800202846FFF7AFFE7DE7D5
:108688000A230BF1010B92FBF3F295E7A345A9D25C
:1086980020212846013CFFF7A1FEA0E77807AAD5CC
:1086A8002B21A5E7A345B0D230212846013CFFF78E
:1086B80095FEA7E7D8F80010CDE900470A1DC8F8CD
:1086C800002053460A220968A4E7D8F800301A1D8A
:1086D800C8F80020F907D3F8009012D54F46A7EB49
:1086E800090B17F8011B41B9A345BFF447AF202177
:1086F8002846013CFFF772FEF6E72846FFF76EFEB4
:10870800EDE7B9F1000F17D0484609F0B9FD074663
:10871800BC4200D954B909F1FF3919F8011F0029E1
:108728003FF42CAF2846FFF759FEF6E720212846EC
:10873800013CFFF753FEEBE74F46E9E703B0BDE81E
:10874800F08F000007B50B4688B9124B1248134A40
:10875800C01A0E23C0080093114B0004114940F0C1
:10876800010002F013FA0E2003B05DF804FB4BB9C8
:10877800084B09480C4AC01AC0080E23009300048D
:10878800074BEBE703601B68114603B05DF804EB89
:10879800184700BF1C5503007C55030052570300BF
:1087A800A556030057570300CE5703002DE9F341A0
:1087B80088B93D4B3D483E4AC01AC0080E243D4B7F
:1087C800009400043C4940F0010002F0DFF9204623
:1087D80002B0BDE8F0814AB9334B3448374AC01A71
:1087E800C0080E2400040094324BEBE7D0F800C018
:1087F800BCF1000F09D12C4B2C48314AC01AC008D3
:108808000824000400942B4BDCE74BB9264B27487F
:108818002C4AC01AC008092400040094254BD1E74B
:108828004768D7F80480B3FBF8F708FB17374FB150
:108838001D4B1E48244AC01AC0080924000400948D
:108848001C4BBFE78F0709D0174B18481F4AC01A9F
:10885800C008102400040094164BB3E712F0030F6D
:1088680009D0114B11481A4AC01AC0081024000434
:108878000094104BA6E7C768B9420BD34C1E056994
:108888001C44AC4206D8DCF80C40A44602B0BDE853
:10889800F0416047044B05480E4AC01AC00810242E
:1088A80000040094034B8DE71C5503007C5503001E
:1088B80052570300B756030057570300D457030015
:1088C800C857030087570300DA570300045803000A
:1088D8001C5803003F580300F7B580B92A4B2B48B2
:1088E8002B4AC01AC0080E242A4B009400042A49B7
:1088F80040F0010002F04AF9204603B0F0BDD0F87C
:1089080000C0BCF1000F09D11F4B2048234AC01AF0
:10891800C0080824000400941E4BE8E74AB91A4B23
:108928001A481F4AC01AC008092400040094194BA9
:10893800DDE74768D7F800E00EF1FF370F4209D0AE
:10894800114B1248174AC01AC0081024000400949A
:10895800104BCCE7C768B9420CD34C1E05690EFB17
:108968000244AC4206D8DCF81040A44603B0BDE887
:10897800F0406047044B05480B4AC01AC008102451
:1089880000040094034BB2E71C5503007C55030018
:1089980052570300CA56030057570300C85703002D
:1089A80087570300DD5603000357030029DF70478C
:1089B80028DF704770B503689D6886B004460E4688
:1089C8006DB114220021684609F027FCA3680593BD
:1089D800237901962BB1012B0DD06846A84706B024
:1089E80070BD01238DF8003023690293E368039377
:1089F80063690493F1E702238DF80030E3681B03F1
:108A08000293F5E70846704700207047024B187A32
:108A1800003018BF01207047D82F0020034B187A68
:108A28000122B0FA80F05A7440097047D82F00200C
:108A380008B510461A4609F0C7FB002008BD00001B
:108A480008B514220021044809F0E7FB0348FFF7A2
:108A58000AFB002008BD00BFD82F0020C82F002027
:108A680010B5094C094B43602046FFF741FC40B95B
:108A780009F08AF81C2320748C2205490548FFF761
:108A8800DFFA002010BD00BFD82F00207458030063
:108A98003C2F0020C82F002070B5244D244E2B7A7F
:108AA8002C463BB923492448FFF739FB306008B905
:108AB800686070BD0223237233681A7972B1012A83
:108AC80024D018460321FFF775FF00232372636043
:108AD80018491948BDE87040FFF74CBBD3E9052099
:108AE800121AB2F5805F28BF4FF48052D3E90315FC
:108AF8009208012A014438BF01222844FFF756FF93
:108B080050B11128DDD101232372D2E7D3E9030242
:108B18001044FFF74DFFF3E7237C002BC9D1014632
:108B2800BDE87040022000F009B800BFD82F00202F
:108B3800F02F0020EC2F0020C82F002038B5831E0E
:108B4800012B45D8234C237A002B41D0022B09D185
:108B5800032830D0204B1B680022E2601A793AB112
:108B6800012A22D0637C7BBBBDE83840FFF794BF65
:108B7800D3E905128D1AB5F5805F94BF521902F535
:108B880080529A619142EDD102284FF0000308BF4C
:108B980019462372104B18BF0D211868FFF70AFFFA
:108BA8000E490F48FFF7E6FADCE71A6901321A6145
:108BB8005B699A42E7E7E3680133082B01D8E36071
:108BC800D0E70023E360DFE7BDE8384008F0CCBF1A
:108BD80038BD00BFD82F0020F02F0020EC2F002038
:108BE800C82F002000F0FD03012B08D1044B002200
:108BF8005A74421E504250411874FFF74DBF7047D7
:108C0800D82F002010B5064C201DFFF771FB28B99E
:108C1800637C1BB9BDE81040FFF73EBF10BD00BF25
:108C2800D82F00202DE9F34180460D460F4801A9B1
:108C380016461F46FFF739FA0446A8B11C22002140
:108C480009F0EBFA2D0B0123237101A9C4F8008068
:108C5800A760E56066610548FFF751FAFFF7D2FFA4
:108C6800002002B0BDE8F0810420FAE7C82F0020F8
:108C78002DE9F74381468846104801A917461E4644
:108C8800FFF713FA0446B0B11C22002109F0C5FA17
:108C980000250A9BA36001A92571C4F80090C4E9C6
:108CA800037866610548FFF72AFAFFF7ABFF284605
:108CB80003B0BDE8F0830420FAE700BFC82F002006
:108CC8002DE9F047B0F806904479D2F800A09DF855
:108CD800208009FB04F4043C06460AEB0300A0428A
:108CE8000F4688BFA4EB030A191DC2F800A0B1FB08
:108CF800F9F509FB15114DB9A9EB0104544528BF35
:108D08005446BAF1000F04D1BDE8F0873668013D3A
:108D1800F1E704317B1970182246B8F1000F0ED024
:108D280001461846AAEB040A09F04EFAD145254433
:108D380036684C464FF0000128BF5446E1E7194613
:108D4800F0E7FFF7DEBAF8B546790146721E054628
:108D5800002393422D6803D30024A64202D8F8BD0D
:108D68000133F6E70F682846FFF705FB013439465B
:108D7800F3E72DE9F843068ACD1C0746FFF7D8FA32
:108D8800043E35440446B5FBF6F5F0B14FF4807364
:108D9800EDB28380C680013D076081464FF0000830
:108DA800A84512D23846FFF7C3FA064648B1637998
:108DB8000133637108F10108C9F8000007608146B2
:108DC800EEE72046FFF7BFFF34462046BDE8F883AC
:108DD80001210430FFF776BA10B5012104460430AA
:108DE800FFF77BFA10F0FF0F04D12046BDE81040D2
:108DF800FFF7A9BF10BD1FB504AC44F8042D00222D
:108E080000922246FFF75CFF04B010BD1FB504AC0A
:108E180044F8042D012200922246FFF751FF04B0C6
:108E280010BD41DF70470000064B10B500241C70D0
:108E3800054B1C60BFF35F8F0449054800F00BF930
:108E4800204610BDFC2F002000300020A058030051
:108E5800F42F002007B502A8002300F8013DFEF713
:108E6800E3F9F1EE103A23F09F03E1EE103ABFF375
:108E78005F8F0A4B4022C3F884219DF80700FEF754
:108E8800F7F908F081FE20B1FFF7CBFF03B05DF8DA
:108E980004FB20BF40BF20BFF8E700BF00E100E0AF
:108EA800026813685268934291BFD01A80680130F3
:108EB800801888BFC01A70472DE9F84303681D68F9
:108EC8005C68A54284BF836801331746884694BF0F
:108ED800641B5C1BC2684168BC42064605FB021164
:108EE8000CD37A43404609F06FF9B3683D449D427C
:108EF80088BF002533681D60BDE8F88304FB02F9CC
:108F08004A46404609F060F9F26871683C1B6243C2
:108F180008EB090009F058F933681C60ECE70368AE
:108F280081681A685B688B4234BF01330023D31A07
:108F3800584258417047F7B5044602A8002300F884
:108F4800013D0D46FEF770F92046FFF7E8FF10B126
:108F5800237C002B3CD12268A66853685168B14233
:108F680034BF01310021516030B11168A0688142DD
:108F780034BF013100211160E2686068511E072981
:108F880020D8DFE801F004101F141F1F1F182A78CB
:108F9800C2542046FFF784FF23689A68824200D2B1
:108FA8009860002415E02A8820F81320F1E72A6841
:108FB80040F82320EDE7D5E9006700EBC300C0E9DE
:108FC8000067E6E7294602FB030009F0FDF8E0E741
:108FD80004249DF80700FEF74BF9204603B0F0BDC6
:108FE800F7B506460F46144600259AB102A800F8C0
:108FF800015DFEF719F93046FFF752FFA0420CD386
:10900800224639463046FFF757FF2C469DF80700A1
:10901800FEF72EF9204603B0F0BD0524F6E737B574
:10902800054602A8002400F8014DFEF7FDF80C22C1
:109038002146286809F0F1F89DF80700FEF718F9AD
:1090480003B030BD836800225A609A60C3E90422E5
:10905800DA601A6070470B684A684360934208BF39
:109068000023016008BF43607047436843B102684A
:10907800916852680B449342436004BF00234360E5
:10908800704700000D4930B5A1F594720225914250
:1090980001D800200EE08B1ADB1093FBF5F302EBEE
:1090A800C30452F83330834205D802D204F10802CF
:1090B800EDE7606830BD2146E9E700BFF0590300DD
:1090C80008B5FFF7DFFF024B002808BF184608BDA8
:1090D800B55803000B7B23B14B6803600023037171
:1090E80070470B6803600123F9E703684A688968D9
:1090F80010B5D41A8C428BBF5B1800230360026042
:1091080098BF037110BD03680A68896810B59C1A76
:109118008C428BBF5B1A01230360026098BF037106
:1091280010BD037910B504461BB1FFF7DEFF2068B8
:1091380010BDFFF7E8FFFAE738B5084C04F108035B
:109148000546002818BF1C4623682BB11A68226000
:109158005B6828469847F7E738BD00BF0C30002009
:1091680020B9054B01225A70FFF7E6BF012802D14A
:10917800014A9070F8E770470430002020B9034B8B
:1091880001225A70FFF7D8BF704700BF0430002093
:1091980038B50B4C237883B90A486360A360236110
:1091A800E36000F0A5F9054608F0EEFC08B900F008
:1091B800ADF901232370284638BD8525FBE700BF9C
:1091C800043000206991020037B502A80023094C39
:1091D80000F8013DFEF728F8E368013BE360E56825
:1091E80015B900F0A5F9A5709DF80700FEF740F83D
:1091F80003B030BD04300020012813B509D003D3D3
:1092080003281BD002B010BD0F4B0122C3F88020E9
:10921800F8E702A800230D4C00F8013DFEF704F81A
:1092280023780BB9FFF7B4FFE3689DF80700013313
:10923800E3600123A370FEF71BF8E3E700F066F98B
:10924800FFF7C2FFDEE700BF00E100E004300020C6
:1092580031DF70471FB58DF8070004A8002300F818
:10926800013DFDF7E1FF08F08FFC50B90DF1070152
:109278000748FFF760FE0648FFF751FE08B100F007
:10928800F7FB9DF80F00FDF7F3FF05B05DF804FB51
:10929800BC54030007B520B103280BD003B05DF818
:1092A80004FB0F4B1B78012BF8D100F0E1FB00F019
:1092B800E7FBF3E702A8002300F8013DFDF7B4FF40
:1092C80007480378012B05D10649013000F090FBCF
:1092D80000F0BCFB9DF80700FDF7CAFFDEE700BF02
:1092E800683000205D92020013B5124C2378F3B960
:1092F800114A002808BF10460288A4F8012002A8D5
:1093080000F8013DFDF790FF08F03EFC30B90B492D
:10931800601C00F06DFB40B900F098FB01239DF83C
:1093280007002370FDF7A4FF002002B010BD8520C0
:10933800FBE700BF68300020B05D03005D920200CB
:1093480007B502A8002300F8013DFDF76DFF08F0FE
:109358001BFC18B900F08CFB00F092FB9DF807008D
:10936800FDF786FF0448FFF75AFE044B00221A70E7
:1093780003B05DF804FB00BFBC5403006830002054
:109388002DE9F7430024DFF8589005460E46A0461D
:109398000DF107008DF80780FDF746FF08F0F4FB94
:1093A800074638B9324629464846FFF719FE0446AB
:1093B80000F04CFB9DF80700FDF75AFF47B1314616
:1093C8002846FFF745FF42F207039842044605D0B6
:1093D800022CDDD0204603B0BDE8F0830524F9E770
:1093E800BC540300F8B505460C4604B9F8BD402C3A
:1093F800264628BF4026F7B239462846FFF7C0FF61
:109408000028F9D1A41B3544EFE700001FB5037805
:109418008DF800304368019383688DF80830C3687D
:109428000393054A054B684653F8213052F821103A
:10943800984705B05DF804FB6C30002070300020C0
:109448001FB503788DF800304368019383688DF861
:109458000830C3680393054A054B684653F8213022
:1094680052F82110984705B05DF804FB6C300020D5
:1094780070300020F0B5194B067891F81DE043F8DC
:109488002620174B94460A6943F82620154B03F803
:1094980006E00C4607460FCC89B06D460FC594E828
:1094A8000F0085E80F000496BEF1000F0AD0BCF14A
:1094B800000F0D4A694608BF0022381D00F0DAFD8A
:1094C80009B0F0BDBCF1000F084A694608BF002288
:1094D80007F10C0000F0DAFBF2E700BF7030002063
:1094E8006C3000207430002015940200499402006A
:1094F800054A13792BB9012110601171537118466F
:1095080070478520704700BF78300020074B1A68E5
:10951800D2075FBFC02283F8002301221A604FF0F0
:1095280080430122C3F81825704700BF00E100E01E
:10953800044B01221A604FF08042D2F81834DB0342
:10954800FBD470470C000040154B07B51A687AB178
:1095580000221A601B680093009B4FF08043012291
:10956800C3F808230F4B587910B95A711B689847EC
:109578000D4B1A6882B100221A601B680193019B87
:109588004FF080430222C3F80823064B1B680120D2
:1095980003B05DF804EB184703B05DF804FB00BFA7
:1095A80000010040783000200401004000F18040B4
:1095B80000F5C040002382B0036003680193019B5B
:1095C80002B07047800000F1A040D0F8003723F4C3
:1095D8004033C0F80037D0F8003743EA0141C0F8FB
:1095E80000177047054B4FF0FF32072843F820203B
:1095F80084BF1B1883F84820704700BF80300020C4
:1096080010B5164C94F8583033BBFF21E2180133DB
:10961800202B82F83010F9D10021C8B2FFF7E2FF01
:1096280001310C29F9D1042200210D4808F0F5FD7B
:109638000C4BC02283F8062340221A604FF4BE70F8
:10964800FFF7B4FF084B4FF00042C3F8042301238F
:1096580084F85830002010BD0820FCE78030002036
:10966800D430002000E100E000600040034B93F894
:109678005800003018BF0120704700BF803000201C
:10968800F0B5394D2C18944694F93040002C68DA1E
:109698008E78C6F34006002E15BF0023082308273E
:1096A8000C27BB4201D10420F0BD55F8232001321C
:1096B8004FEA830441D12F1845F823C087F830308A
:1096C80016B9EA1882F848008A78560716D4D707D8
:1096D80035D5820002F1A042D2F8006726F00206D2
:1096E800C2F80067214FC60800F0070C012202FAF1
:1096F8000CF217F806C042EA0C02BA558A780E78BE
:1097080012F0020224D004F1804303F5C0430002A2
:10971800D3F8102522F4473222F44072C3F81025FA
:109728003604D3F8102500F4F85006F440363043D8
:109738001043C3F810050020B6E70133B1E74E78AF
:1097480000F5E0724FF0A047B60047F82260C9E77D
:10975800083B2B4493F8500040EA861683F8506083
:10976800E9E70820A0E700BF80300020D4300020BF
:1097780038B5204C251895F93020072A18DD2244E1
:1097880092F848309B09032B0DD14FF0A043D3F832
:109798001035C34013F0010F0CBF02210321BDE8AF
:1097A8003840FFF70FBF012B14BF03210221F6E752
:1097B800D3B2072B1CD8930003F1804303F5C043B1
:1097C800D3F8100540F00100C3F8100502F140007D
:1097D800800080B2FFF7EAFE51B195F9303054F8B5
:1097E80023302BB1012303FA02F2034BC3F80423FD
:1097F80038BD00BF80300020006000404FF0A0431B
:10980800D3F8103523FA00F000F00100704700008B
:109818002DE9FF470024584A584E594D019401211B
:109828001368A2F5C040012B80B206D1D6F80433E4
:109838000B4202D0FFF7BAFE0C430432AA424FEAA9
:109848004101EDD14F4B1B68012B0AD14FF4BE707B
:10985800FFF7ACFE4FF0A04344F00044D3F81035B6
:10986800019314F0FF0F1AD0474F00250126344208
:1098780010D0AB0003F1804303F5C043D3F81005C3
:10988800D3F8101557F82530C0F30420C1F301416F
:1098980003B198470135082D4FEA4606E7D1002C59
:1098A80066DA00224FF0FF33CDE90223DFF8D890C3
:1098B8000127002634464FF0A04809EB060393F928
:1098C8005020531C45D0D2B222F0C005E90804A8A4
:1098D800084402F0070310F804CC07FA03F31CEA63
:1098E800030F36D009EB050C92099CF930C059F8E2
:1098F8002CA0BAF1000F0AD1032A2AD10DF1080EC3
:109908001EF801C04CEA030C0EF801C001E0032A5E
:10991800F4D005F5E07110F80C0C58F82110184235
:10992800C1F3014105D0022913D1032A0BD11146F5
:1099380004E003290DD1032A05D102212846FFF7A7
:1099480041FE0134E4B2BAF1000F02D011462846B4
:10995800D0470136042EB0D154B14FF0A043019A3C
:10996800D3F81035934203D00193029B0393A0E7E9
:1099780004B0BDE8F08700BF00610040006000400F
:10998800206100407C61004080300020014B1B6852
:10999800184700BFDC3000200D4B984237B50D4604
:1099A80010D102A8002300F8013DFDF73DFC094B4A
:1099B8001C7914B901221D601A719DF80700FDF782
:1099C80057FC14B9002003B030BD1120FBE700BFDD
:1099D80000200040DC300020034B984201BF034BBD
:1099E80000221A601A71704700200040DC30002005
:1099F80010B5124C2278FAB9114B1960037813F09C
:109A0800010F104B1EBFD3F8042542F00102C3F822
:109A18000425D3F8002222F00102C3F8002243787B
:109A2800094A5B01DBB282F80D334FF4005313602F
:109A380001232370002010BD8520FCE7E8300020BA
:109A4800E430002000D0004000E100E0064B002296
:109A58001A6082B01B680193019B044B0122C3F872
:109A680004231A6002B0704700D1004000D00040C3
:109A7800024A0123C2F808335360704700D00040FF
:109A8800064A0123C2F808335360054B4FF40052CD
:109A9800C3F88020034B00221A70704700D00040A2
:109AA80000E100E0E8300020074B00221A6082B095
:109AB8001B680193019B054BD3F80805044B1B68F1
:109AC800C0B202B0184700BF00D1004000D000402B
:109AD800E43000200023435082B043580193019B97
:109AE80002B070470A4610B54FF48E71FFF7F2FFC7
:109AF800136A9168C95C136A01331362C0F81C15B4
:109B080010BD8B690A4610B54FF4847123B9FFF76D
:109B1800E1FFD0F8183510BDFFF7DCFF536AD168B4
:109B2800D0F81805C854536A01335362F3E70000AC
:109B38001FB501238DF80030044BCDE90110D3E99E
:109B480000126846904705B05DF804FBEC30002031
:109B580030B54C4AD2F8043313F4007F85B015466B
:109B68004FD0D2F82431002B4BD04FF492711046CD
:109B7800FFF7B0FF4FF40173C2F80833424B93F874
:109B8800291009B9012151603E4902228DF80020AF
:109B9800D1F88024C1F8802403929A690292DA6885
:109BA80001920022C3E906226846D3E900129047D1
:109BB8003448D0F81C315BB133490A6A4B699A4280
:109BC8000A464BD291F82830002B47D1FFF78AFF7D
:109BD8002C4AD2F8443193B14FF4A2711046FFF7E2
:109BE80079FF294B93F8291009B1012111609A696D
:109BF8002AB100229A61586AD968FFF799FF05B01F
:109C080030BDD5F804335B07D2D5D5F80831002B21
:109C1800CED01D4C1B482146FFF773FF636AA2692B
:109C28009A422346C4D1E269E1684AB12369E360F4
:109C38000023606AA261E3616362FFF779FFB7E717
:109C480094F829200AB901226A600E4A4FF401707B
:109C5800C2F8080300229A61586AEEE74FF48E7141
:109C68000848FFF737FF51690029B1D00023029156
:109C780091688DF80030019153616846D2E900136C
:109C88009847A5E700200040EC3000202DE9F84374
:109C9800564F047991462C2202FB0472064692F82C
:109CA8002A200D46002A40F09A8051490068FFF7A3
:109CB80073FE8046002840F0958029683368481C68
:109CC8000BD04FF0A04001228A40C0F8082501F5CA
:109CD800E0724FF0030C40F822C06868421C1FBFB6
:109CE80000F5E0724FF0A04C4FF0000E4CF822E067
:109CF800AA6995F814C0C3F824256A7DBCF1010F40
:109D08004CEA0202C3F86C25C3F81405C3F80C1515
:109D18001DD1AA68511C1FBF02F5E0714FF0A04089
:109D28004FF0000C40F821C0E968481C0BD04FF0F8
:109D3800A04C01208840CCF8080501F5E0704FF0F0
:109D4800030E4CF820E0C3F80815C3F810252C239F
:109D58006343FA18C2F804902A69FA50B9F1000F5F
:109D68002AD04FF48E7130682D7FFFF7B3FE30682C
:109D78004FF4A271FFF7AEFE32681E4BC2F80433EF
:109D8800120B51B20029A8BF01F160404FEA4513F8
:109D9800BABF194802F00F0500F56140DBB2B4BF45
:109DA800435580F8003302F01F02012303FA02F240
:109DB8004909124B43F8212033680422C3F80025CF
:109DC8002C2303FB04730022C3E9062283F829200D
:109DD8005A61012283F82A204046BDE8F8834FF0F3
:109DE8000808F9E74FF01108F6E700BFEC3000204B
:109DF800599B02008000020014ED00E000E100E041
:109E0800F8B5047900682D4D0023C0F800352C23DF
:109E180003FB04535B6873B1294BC0F80833020B8A
:109E280053B201215B0902F01F0201FA02F220334A
:109E3800244941F82320D0F80C65D0F81415D0F83F
:109E48000835D0F810254FF0FF37BE42C0F814751A
:109E580018BF06F5E076C0F80C75C0F80875C0F8AC
:109E680010751EBF4FF0A0474FF0020C47F826C0F0
:109E78004E1C1FBF4FF0A04601F5E071022746F8BF
:109E88002170511C1FBF4FF0A04102F5E07202265D
:109E980041F822605A1C1FBF03F5E0734FF0A0423F
:109EA800022142F82310FFF797FD2C2303FB0454EB
:109EB800002384F82A306360F8BD00BFEC3000202E
:109EC8008402020000E100E02DE9F843224F067900
:109ED8004FF02C0909FB067480466569002D37D1BF
:109EE8006261A16025624FF48E71006884F8285081
:109EF800FFF7F0FDD8F80000012383602146FFF743
:109F0800F1FD6368A1462BBBD8F80050226A63694B
:109F18009A4212D3D8F80030D3F81C21002AFBD07B
:109F28000122DA6000202C2303FB067600237361EC
:109F3800BDE8F88394F8283043B9D5F81C31002BD4
:109F4800F8D049462846FFF7CDFDDFE70F20EAE7BE
:109F58001120EDE72846EBE7EC30002000234350C2
:109F680082B043580193019B02B070471FB501238B
:109F78008DF80030044BCDE90110D3E90012684692
:109F8800904705B05DF804FB183100207FB5374ACB
:109F9800D2F82461002E48D010464FF49271FFF792
:109FA800DDFF02238DF80030D2F88034C2F8803407
:109FB8000393D2F83C3502932D4BDA6801920022C4
:109FC800C3E906226846D3E900129047274AD2F827
:109FD80044317BB14FF4A2711046FFF7BFFF244B09
:109FE800996939B10021C3E90611D968D2F83C054D
:109FF800FFF7BCFF1D4AD2F82031A3B14FF490718E
:10A008001046FFF7ABFF1A4B596961B1D2F84C15EE
:10A018000291002299688DF8002001915A616846E2
:10A02800D3E90012904704B070BDD2F81031002B6C
:10A03800CCD04FF488711046FFF790FF0C4BD2F844
:10A048003C0599698842C1D1DC69D96864B1D2F804
:10A05800005225F02005C2F800521A699C61DA60A6
:10A06800DE61FFF783FFB1E79C61FAE7002000405B
:10A07800183100202DE9F8435A4F067991462422D9
:10A0880002FB0672044692F820200D46002A40F092
:10A09800A28055490068FFF77FFC8046002840F001
:10A0A8009D8029682368481C0BD04FF0A0400122EE
:10A0B8008A40C0F8082501F5E0724FF0030C40F81B
:10A0C80022C06868421C1FBF00F5E0724FF0A04C28
:10A0D8004FF0000E4CF822E0AA6995F814C0C3F8B6
:10A0E80024256A7DBCF1010F4CEA0202C3F86C25F5
:10A0F800C3F80C15C3F814051DD1AA68511C1FBF5D
:10A1080002F5E0714FF0A0404FF0000C40F821C07C
:10A11800E968481C0BD04FF0A04C01208840CCF8CF
:10A12800080501F5E0704FF0030E4CF820E0C3F885
:10A138000815C3F8102524237343FA18C2F80490AD
:10A148002A69FA50B9F1000F34D04FF488712068A9
:10A158002D7FFFF703FF4FF490712068FFF7FEFE95
:10A168004FF492712068FFF7F9FE20684FF4A2714E
:10A17800FFF7F4FE22681D4BC2F80433120B51B2EC
:10A188000029A8BF01F160404FEA4513BABF18483B
:10A1980002F00F0500F56140DBB2B4BF435580F80B
:10A1A800003302F01F02012303FA02F24909114B9E
:10A1B80043F8212023680822C3F80025242303FB41
:10A1C80006730022C3E906225A61012283F820207F
:10A1D8004046BDE8F8834FF00808F9E74FF011084A
:10A1E800F6E700BF18310020959F02001003020017
:10A1F80014ED00E000E100E0F8B5047900682D4DA9
:10A208000023C0F80035242303FB04535B6873B1B3
:10A21800294BC0F80833020B53B201215B0902F045
:10A228001F0201FA02F22033244941F82320D0F812
:10A238000C65D0F81415D0F80835D0F810254FF073
:10A24800FF37BE42C0F80C7518BF06F5E076C0F8B7
:10A258001475C0F80875C0F810751EBF4FF0A047F8
:10A268004FF0020C47F826C04E1C1FBF4FF0A04607
:10A2780001F5E071022746F82170511C1FBF4FF00D
:10A28800A04102F5E072022641F822605A1C1FBF65
:10A2980003F5E0734FF0A042022142F82310FFF7C4
:10A2A8009BFB242303FB0454002384F820306360C1
:10A2B800F8BD00BF183100201003020000E100E0E3
:10A2C80001F06043B3F1005F2DE9F041074632D158
:10A2D8001C4B0679242505FB063598466C6964BB3A
:10A2E8006A61A96000684FF49071FFF737FE4FF478
:10A2F800AC713868FFF732FE3B686A69A968C3F831
:10A308004415C3F8482501229A606A68BAB9D3F897
:10A318002011D3F8582149B9002AF8D00F20242356
:10A3280003FB068600237361BDE8F081002A14BF91
:10A338000F200020F3E71020F6E71120F4E720466D
:10A34800F2E700BF18310020054A4FF0A043105C27
:10A35800D3F8043523FA00F0C04300F00100704739
:10A36800DA5D0300044B1A5C012393404FF0A042CE
:10A37800C2F80C35704700BFDA5D0300044B1A5C65
:10A38800012393404FF0A042C2F80835704700BF40
:10A39800DA5D030008B50020FFF7F0FF0120FFF7A2
:10A3A800EDFF0220FFF7EAFF0320BDE80840FFF7B2
:10A3B800E5BF08B50020FFF7D5FF0120FFF7D2FF62
:10A3C8000220FFF7CFFF0320BDE80840FFF7CABF10
:10A3D800074A4FF0A041105CD1F8043501228240B1
:10A3E80022EA03001340C1F80805C1F80C3570478C
:10A3F800DA5D0300054A4FF0A043105CD3F810352E
:10A4080023FA00F0C04300F001007047D65D030056
:10A418000D2809D00E2809D00F2809D010280CBF04
:10A4280003204FF0FF30704700207047012070472D
:10A4380002207047014B185C704700BFD65D0300CF
:10A44800C20708B501460CD54FF0A0430322C3F854
:10A458004427C3F84827C3F84C27C3F85027FFF709
:10A4680099FF8B070AD54FF0A0430C22C3F8342775
:10A47800C3F83827C3F83C27C3F8402708BDF0B510
:10A4880095B01C46164608460D46FEF7A1FC1A9BD9
:10A498000D93CDE9086400242346082205A928461F
:10A4A8000A948DF82C400C94FEF7B0FC079B02939D
:10A4B800BDF81830ADF80C30BDF81A30ADF80E30D4
:10A4C8009DF814308DF8114003F00302012A1DD1C4
:10A4D800BDF81440059EC3F3C203C4F383148DF87A
:10A4E8001030A20008230EA92846FEF78FFCC6F3F9
:10A4F800952608AB0093224602AB0EA9304600F021
:10A5080001FC2846FEF768FC15B0F0BD022AF8D118
:10A51800BDF81640C3F3C203A4098DF8103008270C
:10A52800082C264628BF08263B4632460EA9284650
:10A53800FEF76CFCA41B08AB02AA31460EA83744F0
:10A5480000F044FC002CEBD1DBE70000014B0122BA
:10A558001A7070477D3100207047000070B50E4DAD
:10A5680006460FCD88B06C460FC495E80F0084E806
:10A578000F0008A9002E4FF00603084A41F8203DB5
:10A5880008BF00220648FEF775FF08B1FCF75AFB22
:10A59800044B1E7008B070BDE05D030055A50200B5
:10A5A800A42B00203C31002007B5044B0093044A3B
:10A5B8004023FFF764FF03B05DF804FBCDA502005C
:10A5C8003D31002038B50D4B0D4D002018700D4859
:10A5D80004782D5DD2B21C4665B10430FFF770FED9
:10A5E80008B1FCF72FFB084B1A7812B12378002B1F
:10A5F800FBD038BD0C30FFF767FCF1E77D31002058
:10A6080074300020A42B00203C31002008B50848F5
:10A61800084A0378D35C3BB10430FFF7EDFD002016
:10A62800BDE80840FFF79ABF0C30FFF7E9FBF6E7F3
:10A63800A42B0020743000200120FFF78FBF0000FA
:10A6480008B5FFF7F9FF0421034800F0C9FA034BE6
:10A6580001225A7108BD00BFFC550300B82B002029
:10A66800037813F0040216D003F00303012B03D080
:10A67800022B09D0012070470A6800880232C0F313
:10A68800831002440A60F5E70B684288023303EB43
:10A6980092130B60EEE71046704700002DE9F04F6B
:10A6A80089B00546861C08A8484C019200230F462D
:10A6B80000F8113DFCF7B8FD23683B60D4E901239D
:10A6C8001344226801339B1A04F21C4704F5836A79
:10A6D80004F21448B3421AD3019A0023002A6DD019
:10A6E800012262F3010343F0040365F3891321682F
:10A6F800A2689DF80F000A4003320E4444F8223045
:10A708002660FCF7B5FD012009B0BDE8F08F0121F6
:10A718003846FDF7D7FD5046FDF7EDFD4046FDF7FD
:10A72800EAFD0DF120096068D4F808B049F8100D69
:10A7380000EA0B00033004EB80004946FFF790FF66
:10A74800049BB0B90BEA030204EB8202D1680591BD
:10A758009A1C013303EA0B0B04EB8B0C01F0030387
:10A76800012B0492DCF80CB020D0022B04D08346D5
:10A778000BE00BEA0300DDE7BDF816309B09033355
:10A788004FEA1B4B02EB930304934046FDF7B6FDDB
:10A7980008B1049B636059463846FDF793FDD4E938
:10A7A80001231344226801339B1A93E7BDF8143040
:10A7B800C3F383134FEA1B4B1344E5E7022262F30A
:10A7C800010343F0040365F39F5390E750320020E0
:10A7D8000B4B0C48FF2210B59A600022C3F81824CE
:10A7E800C3E90022C3F8142483F82024FEF7A9FA49
:10A7F800044610B90448FEF725FC204610BD00BFEA
:10A808005032002000550300205E030030B50A4C8A
:10A8180071B10A4A0A49121BD20800239A4201D18F
:10A82800002030BD31F82350854202D00133F5E7CE
:10A83800034654F83300F4E71C550300FC550300A5
:10A84800A42B0020094B013903EBC000032909D8C8
:10A85800DFE801F00A020406042070470079704717
:10A868004079704700207047022070471C5503004C
:10A87800034BD3E90030C31A58425841704700BF10
:10A88800503200202DE9F04387B0FFF7F1FF06466C
:10A89800002840F0FC807F4DC5F81804BFF34F8FA7
:10A8A8006868AC6806AF47F8100D2040033005EB28
:10A8B80080003946FFF7D4FE029B18B1D5F818245A
:10A8C800002A5FD004EA0302991C013305EB8202D7
:10A8D800234005EB8303D268DB68049302F003038B
:10A8E800022B0392029162D1BDF80E306A484FEAFA
:10A8F8009318B8F1500FC14628BF4FF0500969F3BB
:10A908008F1309F10801ADF80E30FEF732FA074649
:10A91800002800F0A780FEF75BFA03A900230822AD
:10A928003846FEF768FA029924EA01060136B600AD
:10A93800B14535D95FFA89F97EB3F6B2A9EB0609B4
:10A94800214003315FFA89F4B146544E05EB810189
:10A9580008234A463846FEF74EFA36B109F108038D
:10A96800224631463846FEF746FA029B08F10308AC
:10A9780003EB98030293D5F81834002B4BD1D5F884
:10A9880010445BE02A689A4204D86A60304607B0EF
:10A99800BDE8F08304EA030088E740493446D7E776
:10A9A8002140033108234A4605EB8101DAE7012BF0
:10A9B80058D1BDF80C303848C3F38311062928BF95
:10A9C800062161F3891302318900ADF80C30FEF7D6
:10A9D800D0F90746002845D0FEF7FAF900230822E7
:10A9E80003A93846FEF707FA0026BDF80C20C2F383
:10A9F8008312B31C96424FEA8303BCD202994A1CC5
:10AA080021400331029205EB810104223846FEF70A
:10AA1800F2F90136E9E73846FEF7DEF9FFF728FFD5
:10AA280080F00100C6B2B1E7E3685B7923B123681F
:10AA380039461B6820469847E3681C68002CF3D108
:10AA48003846FEF7C9F906A800F8114DFCF7ECFBEB
:10AA5800D5F818340BB9029B6B609DF80700FCF71A
:10AA680007FCDBE7D5F8104454B90D4B0D480E49E7
:10AA7800C01AC008000440F0020000F06FF8CDE7EB
:10AA8800236820469B689847E3681C68ECE7002623
:10AA98007CE700BF50320020005503005C320020E4
:10AAA8001C5503004C5503002C5E03002DE9F74F9D
:10AAB800284C80460F46924601A9012218469B461B
:10AAC800D4F80890FFF7EAFD88B3019D0026A91C79
:10AAD8005E4506EB010234D100211F48FDF7B1FBAA
:10AAE80080F310006A1C02EA090204EB82020004E7
:10AAF80005EA0903033340EA1840D06014F823201C
:10AB080068F3C50204F8232034F8232066F3891279
:10AB180024F8232054F82320012167F39F2244F8C6
:10AB2800232061F301026FF3820204F8232094F8D2
:10AB380020341BB1FFF7A6FE0028FBD103B0BDE807
:10AB4800F08F09EA020204EB82025AF82630D36039
:10AB58000136BDE7503200206C36002000231A462B
:10AB6800FFF7A4BF13B502AC012344F8042D224615
:10AB7800FFF79CFF02B010BD07B5CDE90023022303
:10AB88006A46FFF793FF03B05DF804FB1FB5CDE9F4
:10AB98000123069B039301AA0323FFF787FF05B050
:10ABA8005DF804FB1FB5CDE90023069B0293079BC4
:10ABB80003936A460423FFF779FF05B05DF804FBA9
:10ABC8007FB5CDE90123089B0393099B04930A9B56
:10ABD800059301AA0523FFF769FF07B05DF804FB99
:10ABE80030B50F49D1F81024002314463CB9C46885
:10ABF800237152B9C1F810042260184630BDE468C8
:10AC080025799D4206D02468F0E7D2681168216052
:10AC18001060F2E701330A2BE7D14FF0FF33ECE77E
:10AC280050320020094A38B50123D2F8104482F87E
:10AC380020341D4604B938BDE3685D712368204699
:10AC48005B689847E3681C68F4E700BF503200204F
:10AC5800037A052B10B50C460FD0437A23B1084A66
:10AC680008492046FDF7ABFB07492046FDF7A7FB3F
:10AC78002046BDE81040FDF797BB002AF8D0F3E75F
:10AC8800775E0300D3930300995E0300C38873B50E
:10AC980004460D4633B1144A00921449144A284612
:10ACA800FDF78DFB217A05291CD0637A4BB1A0886A
:10ACB800FFF7C8FD0F4B104953F820202846FDF731
:10ACC8007EFB227A0D4BA08853F822600021FFF703
:10ACD8009DFD0B4903463246284602B0BDE8704048
:10ACE800FDF76DBB02B070BD775E0300845E0300A4
:10ACF8007C5E0300445E0300D3930300A85E030058
:10AD08009C5E03002DE9F04385B01F460C9D00238F
:10AD180006460C46904695F80C902B732946384603
:10AD2800FFF7B4FFB8F1060F09D8DFE808F00412FE
:10AD3800181F2833400031462846FDF740FB002203
:10AD480029463846FFF784FF85F80C9005B0BDE822
:10AD5800F083226831462846FDF731FBEFE7D4E956
:10AD6800002331462846FDF72AFBE8E7A36800934D
:10AD78003146D4E900232846FDF721FBDFE7E368E5
:10AD88000193A36800933146D4E900232846FDF7D0
:10AD980016FBD4E723690293E3680193A368009341
:10ADA8003146D4E900232846FDF709FBC7E7636964
:10ADB800039323690293E3680193A36800933146E0
:10ADC800D4E900232846FDF7FAFAB8E708292DE95F
:10ADD800F84F80460E4617461C463AD8002593F889
:10ADE8000C901D7319461046FFF750FFDFF884A03A
:10ADF800DFF884B0AE422ED918F80520594620460F
:10AE0800FDF7DDFA0135082DF4D11849DFF86CB0EB
:10AE18002046FDF7D4FA4FF0000A564520D918F815
:10AE28000A507E2D03D8284607F076F900B92E255A
:10AE38002A4659462046FDF7C2FA0AF1010ABAF134
:10AE4800080FEAD1012221463846FFF701FF84F8AE
:10AE58000C90BDE8F88F51462046FDF7B0FAD1E7CF
:10AE680003492046FDF7ABFAE7E700BF725E03002F
:10AE7800705E03006E5E0300685E0300745E03008C
:10AE88004FF48C72002107F0C8B920B100F58C731B
:10AE98000022984200D1704702700130F9E70000A3
:10AEA800C02AF0B545D0B2F5807F44D0802A40F062
:10AEB800DE800A23036000F108034360520900257D
:10AEC800AA4201F1040138D102680C2A47D00E2A9F
:10AED8007CD00A2A2BD1674E674D0024D86856F8D3
:10AEE80024101A684A40C0F307210134695C4A40BB
:10AEF800010E0A2C695C82EA0142C1B203F1100317
:10AF0800695C82EA0162C0F30741695C82EA012256
:10AF180053F80C1C1A6082EA010253F8081C5A60A4
:10AF280082EA01029A6082EA0002DA60D6D1002041
:10AF38009FE00C23BEE70E23BCE711F8024C11F882
:10AF4800036C240444EA062411F8046C344311F811
:10AF5800016C44EA066443F825400135B0E7454EE4
:10AF6800454D0024586956F824101A684A40C0F321
:10AF780007210134695C4A40010E082C695C82EAA9
:10AF88000142C1B203F11803695C82EA0162C0F3AD
:10AF98000741695C82EA012253F8141C1A6082EAAC
:10AFA800010253F8101C5A6082EA010253F80C1C83
:10AFB8009A6082EA010253F8081CDA6082EA010208
:10AFC8001A6182EA00025A61CCD1B0E7294D2A49B8
:10AFD8000024D8691E6855F824201F697240C0F300
:10AFE800072601348E5D7240060E072C8E5D82EABC
:10AFF8000642C6B203F120038E5D82EA0662C0F300
:10B0080007468E5D82EA062253F81C6C1A6082EAB3
:10B01800060253F8186C5A6082EA060253F8146C58
:10B028009A6082EA0602D6B2DA608E5D86EA070680
:10B038004FEA1267CF5D86EA0766C2F30727C2F3B5
:10B048000742CF5D8A5C86EA072686EA024253F801
:10B058000C6C1A6182EA060253F8086C5A6182EA9B
:10B06800060280EA02009A61D861B2D15FE76FF008
:10B078001F00F0BD08700300075F03002DE9F04FC3
:10B0880047680D683B684C688E68C968DFF8988225
:10B09800DFF898E2DFF898C25D407B685C40BB68E7
:10B0A8005E40FB684B4001688FB049100139009140
:10B0B80007F1300151F8107C0197EFB251F8200CDC
:10B0C80058F8277087EA00091F0E95485EF8277020
:10B0D80089EA0709C4F307274FEA146B5CF827705D
:10B0E8005EF82BB089EA0709C6F30747203150F804
:10B0F800277089EA0709E7B25FFA89F058F82770DC
:10B10800029051F83C0C87EA000A2F0E84485EF83A
:10B1180027708AEA070AC6F30727C4F307445CF8CE
:10B1280027708AEA070AC3F3074750F827708AEAA4
:10B13800070AF7B2CAF30720039058F8277051F8A6
:10B14800380C474087EA0B07C3F3072B74485CF8B1
:10B158002BB087EA0B07C5F3074BDBB250F82BB0CF
:10B1680058F8233087EA0B07C7F30740360E0490D8
:10B1780051F8340C5EF82660C5F30725434068484B
:10B1880073405CF8256050F8244051F82C0C059069
:10B1980073406340C3F30740069051F8280C0790AA
:10B1A800F8B20890C3F3072009901D0EC9F30740B1
:10B1B800DBB20A900D93009B4FEA1A600B90002BAC
:10B1C80051F8240C0C905FFA8AF4C7F3072B4FEA66
:10B1D8001966CAF3074AC9F307294FEA17675CDCFF
:10B1E8005049039B019811F803C0029B0C5DCB5C8E
:10B1F80043400498085C83EA0C2383EA0043485DD3
:10B20800059D83EA006311F80B0013706C4084EA13
:10B2180000240698089D085C4D5D84EA0044885D1A
:10B22800079E84EA00640998085C754085EA002551
:10B238000A980C9E085C85EA00450B98085C85EA2C
:10B2480000650D98085C704011F8096080EA0620D6
:10B2580011F80A60C95D80EA064080EA0161180AAF
:10B268005070180C1B0E9070D370230A5371230C66
:10B2780093712B0A53722B0C93720B0A147115726B
:10B28800240E2D0E117353730B0C090ED471D57245
:10B298009373D1730FB0BDE8F08F029B5EF8255011
:10B2A80058F823301E4858F824405EF827706B4041
:10B2B800019D6B40039D5CF825505D40049B50F850
:10B2C80023305D405EF826305C40059B5C405CF8AE
:10B2D8002B305C40069B50F823305C40089B58F8A4
:10B2E80023600B9B5EF823305E40079B5E40099B02
:10B2F8005CF823305E400A9B50F823305E400D9B7B
:10B3080058F823307B400C9F7B405CF829707B40C9
:10B3180050F82A707B40009F013F0097CAE600BFA3
:10B3280008680300075F030008600300086C030057
:10B33800086403002DE9F04F47680C683B684E68C5
:10B348008D68C968DFF89C82DFF89CE2DFF89CC250
:10B358005C407B685E40BB685D40FB684B400168B1
:10B368008FB049100139009107F13001E7B251F867
:10B37800100C58F82770019051F8200C87EA000942
:10B38800370E96485EF8277089EA0709C3F307273E
:10B398004FEA136B5CF827705EF82BB089EA07094F
:10B3A800C5F30747203150F8277089EA0709DFB24B
:10B3B8005FFA89F058F82770029051F8340C87EA40
:10B3C800000A270E85485EF827708AEA070AC5F33F
:10B3D8000727C3F307435CF827708AEA070AC6F30E
:10B3E800074750F827708AEA070AEFB2CAF307201E
:10B3F800039058F8277051F8380C474087EA0B0734
:10B40800C6F3072B75485CF82BB087EA0B07C4F323
:10B41800074BF6B250F82BB058F8266087EA0B07AE
:10B42800C7F307402D0E049051F83C0C5EF82550E8
:10B43800C4F30724464069486E405CF8245050F82D
:10B44800233051F8280C07906E405E40F8B251F84E
:10B458002C3C0890C6F3072005930990CAF30743CC
:10B46800C9F3074006930A904FEA1A600B9051F807
:10B47800240C0C90C6F307400D9000980028C9F3DF
:10B48800072B4FEA17634FEA1664F5B25FFA8AFA98
:10B49800C7F307274FEA19695CDC51490398019EF5
:10B4A80011F800C00298085C7040049E8E5D80EA26
:10B4B8000C2080EA06400E5D11F80B4080EA066019
:10B4C8004E5D059D10706E4086EA0426069C0C5D54
:10B4D80086EA0446CC5C099B86EA0464CE5C089B39
:10B4E800CD5C079B5D400A9BCB5C85EA062585EA17
:10B4F80003450B9B0C9ECB5C85EA036511F80A306B
:10B508007340CE5D83EA06230D9E8E5D11F8091007
:10B5180083EA064383EA0163010A5170010C9170C2
:10B52800000E210AD0705171210C9171290A5172B3
:10B53800290C9172190A14711572240E2D0E1373A9
:10B548005173190C1B0ED471D5729173D3730FB04C
:10B55800BDE8F08F029E5EF8244058F826601F4828
:10B568005EF823305EF829905CF827707440019EDD
:10B578007440039E5CF826607440049E50F8266070
:10B58800744058F825605E40059B5E405CF82B309F
:10B598005E40069B50F823305E40089B58F82350C5
:10B5A8000B9B5EF823305D40079B5D40099B5CF870
:10B5B80023305D400A9B50F823300C985D4058F8C2
:10B5C8002A3083EA090343407B400D98034F57F81C
:10B5D8002070009801387B400090C7E6307903005E
:10B5E8003070030030710300307D030030750300B4
:10B5F80010B50129144621461A4603D1FFF73EFD2E
:10B60800002010BDFFF796FEFAE72DE9F041B2F5EC
:10B61800C07FADF5467D06468846154678D84FF476
:10B62800D07200215EA806F0F8FD18A8FFF728FCE4
:10B6380064AF2B0A00248DF88A312A46302341460C
:10B6480038468DF88B518DF88F31ADF8884106F06A
:10B65800BBFD80237B5504A9193523465B54013370
:10B66800202BFBD14FF4807218A8FFF719FC002497
:10B6780010220021684606F0D0FD0DF27717A84683
:10B688000DF1FF3307F1100113F8012F17F8010F1F
:10B698004240B9421A70F7D1B8F1100F94BFA8EB25
:10B6A8000808A8F110086B466A46012118A8FFF798
:10B6B8009FFFB8F1000FE3D10CAB181910226946AF
:10B6C80006F082FD9DF87B3110340133302C8DF863
:10B6D8007B31CDD14FF480720CA918A8FFF7E0FB9D
:10B6E80006F1300414AB1A46012118A8FFF780FFB1
:10B6F8003046102214A9103606F066FDB442F1D186
:10B7080018A8FFF7C2FB00200DF5467DBDE8F081C3
:10B718006FF03700F8E7F0B58DB004460D463022DB
:10B728000021684606F079FD002704F120060DEB9C
:10B73800070304F1100111F8012D0132D2B20A7089
:10B748000AB9A142F7D12246012130461037FFF746
:10B758004FFF302FEBD16B1E0DF1FF322F3512F852
:10B76800011F13F8010F41409D421170F7D169463E
:10B778004FF480723046FFF793FB102208A9204649
:10B7880006F022FD00200DB0F0BD4FF4A07200219C
:10B7980006F043BD10B5044638B12030FFF775FBFD
:10B7A80004F5A07300229C4200D110BD2270013420
:10B7B800F9E72DE9F0418369B3F5C07FE0B00446AD
:10B7C800884617462DD8C3F5C073934229D34FF442
:10B7D800C0720021684606F020FDD4F83831A2690D
:10B7E800D4F83C01694698470546E8B9A669B8F116
:10B7F800000F07D037B10DEB06003A46414606F078
:10B80800E3FC3E44324669466846FFF7FEFE694659
:10B818002046FFF780FF01232361284660B0BDE87A
:10B82800F0816FF03705F8E76FF03305F5E72DE99C
:10B83800F041044688B0884617460021202204F1CA
:10B84800200568461E4606F0E8FC2846FFF718FB68
:10B858000F9BA36142F21073E3616946C4F8388113
:10B86800C4F83C714FF480722846FFF719FB0E9A12
:10B8780031462046FFF79DFF08B0BDE8F08113B5BB
:10B8880030240194049C0094FFF7D1FF02B010BD4E
:10B898002DE9F04190B0B2F5806F04460E4615468A
:10B8A8009846169F4AD8B7F5807F4AD8302200219B
:10B8B80004A806F0B2FC2269E3699A4201DC6369D4
:10B8C80043B13A4641462046FFF773FF60B110B0D6
:10B8D800BDE8F08147B141463A4604A8FFF795FE16
:10B8E80004A92046FFF717FF04F1200745B904A96A
:10B8F8002046FFF710FF2369013323612846E6E756
:10B9080004F1100212F8013D0133DBB213700BB9D8
:10B918009442F7D16B46224601213846FFF768FE6C
:10B92800102DA84628BF4FF01008304642466946F9
:10B9380006F04AFC4644A5EB0805D7E76FF035004A
:10B94800C5E76FF03700C2E707B500230093FFF79C
:10B958009FFF03B05DF804FB28B139B10023C1E9AA
:10B9680000301846704748F21050704748F213509C
:10B97800704730B1036848F240508B4208BF00203E
:10B98800704748F21050704730B119B10B689342B4
:10B9980005D30A600020704748F21350704748F2F8
:10B9A800145070472DE9F041884600AF064611460D
:10B9B800404615461C46FFF7CFFF08BB21464046C8
:10B9C800FFF7CAFFE0B998F80430104A52F823800C
:10B9D800B8F1000F17D056B90D4A32F8133033B109
:10B9E8000E336A46DB08A2EBC3039D466E46224629
:10B9F80029463046C04718B9064B2B60063B2360E2
:10BA0800BD46BDE8F08148F20350F9E738810300EC
:10BA1800308103007652464D70B505460C461E46E9
:10BA2800FFF79AFF70B9AB796AB1B3420ED12979A1
:10BA3800094B53F8213063B111462046984708B99D
:10BA4800064B236070BD48F21050FBE748F21150D6
:10BA5800F8E748F20350F5E7448103007052464D79
:10BA68002DE9F0410D460D4904461746FFF781FFC1
:10BA780090B966683946B2792846FFF785FF58B904
:10BA88003279074B53F8223023B129462046BDE8C6
:10BA9800F041184748F20350BDE8F0817052464D16
:10BAA80050810300F0B528B14079D1B18AB948F284
:10BAB800135015E01846F8E7441E00254E5D0F5D4B
:10BAC800575516550135013CA542F7D91B1A0144B3
